{
  "contractName": "Land",
  "abi": [
    {
      "inputs": [],
      "stateMutability": "nonpayable",
      "type": "constructor"
    },
    {
      "anonymous": false,
      "inputs": [
        {
          "indexed": false,
          "internalType": "address",
          "name": "_sellerId",
          "type": "address"
        },
        {
          "indexed": false,
          "internalType": "string",
          "name": "message",
          "type": "string"
        }
      ],
      "name": "Landrequested",
      "type": "event"
    },
    {
      "anonymous": false,
      "inputs": [
        {
          "indexed": false,
          "internalType": "address",
          "name": "_registrationId",
          "type": "address"
        },
        {
          "indexed": false,
          "internalType": "string",
          "name": "message",
          "type": "string"
        }
      ],
      "name": "Registration",
      "type": "event"
    },
    {
      "anonymous": false,
      "inputs": [
        {
          "indexed": false,
          "internalType": "address",
          "name": "_id",
          "type": "address"
        },
        {
          "indexed": false,
          "internalType": "string",
          "name": "message",
          "type": "string"
        }
      ],
      "name": "Rejected",
      "type": "event"
    },
    {
      "anonymous": false,
      "inputs": [
        {
          "indexed": false,
          "internalType": "address",
          "name": "_id",
          "type": "address"
        },
        {
          "indexed": false,
          "internalType": "string",
          "name": "message",
          "type": "string"
        }
      ],
      "name": "Verified",
      "type": "event"
    },
    {
      "anonymous": false,
      "inputs": [
        {
          "indexed": false,
          "internalType": "bytes32",
          "name": "_id",
          "type": "bytes32"
        },
        {
          "indexed": false,
          "internalType": "uint256",
          "name": "Property",
          "type": "uint256"
        },
        {
          "indexed": false,
          "internalType": "string",
          "name": "message",
          "type": "string"
        }
      ],
      "name": "caseClosed",
      "type": "event"
    },
    {
      "anonymous": false,
      "inputs": [
        {
          "indexed": false,
          "internalType": "string",
          "name": "message",
          "type": "string"
        }
      ],
      "name": "messageEmit",
      "type": "event"
    },
    {
      "anonymous": false,
      "inputs": [
        {
          "indexed": false,
          "internalType": "uint256",
          "name": "message",
          "type": "uint256"
        }
      ],
      "name": "messageEmit",
      "type": "event"
    },
    {
      "anonymous": false,
      "inputs": [
        {
          "components": [
            {
              "internalType": "uint256",
              "name": "propertyPID",
              "type": "uint256"
            },
            {
              "internalType": "uint256",
              "name": "area",
              "type": "uint256"
            },
            {
              "internalType": "string",
              "name": "city",
              "type": "string"
            },
            {
              "internalType": "string",
              "name": "state",
              "type": "string"
            },
            {
              "internalType": "string",
              "name": "district",
              "type": "string"
            },
            {
              "internalType": "uint256",
              "name": "landPrice",
              "type": "uint256"
            },
            {
              "internalType": "bytes32",
              "name": "localHash",
              "type": "bytes32"
            },
            {
              "internalType": "address",
              "name": "currentOwner",
              "type": "address"
            },
            {
              "internalType": "string",
              "name": "status",
              "type": "string"
            }
          ],
          "indexed": false,
          "internalType": "struct Registry.LandDetails",
          "name": "land",
          "type": "tuple"
        }
      ],
      "name": "property",
      "type": "event"
    },
    {
      "anonymous": false,
      "inputs": [
        {
          "indexed": false,
          "internalType": "uint256",
          "name": "propertyPID",
          "type": "uint256"
        },
        {
          "indexed": false,
          "internalType": "uint256",
          "name": "area",
          "type": "uint256"
        },
        {
          "indexed": false,
          "internalType": "string",
          "name": "city",
          "type": "string"
        },
        {
          "indexed": false,
          "internalType": "string",
          "name": "state",
          "type": "string"
        },
        {
          "indexed": false,
          "internalType": "string",
          "name": "district",
          "type": "string"
        },
        {
          "indexed": false,
          "internalType": "uint256",
          "name": "landPrice",
          "type": "uint256"
        },
        {
          "indexed": false,
          "internalType": "bytes32",
          "name": "localHash",
          "type": "bytes32"
        },
        {
          "indexed": false,
          "internalType": "address",
          "name": "currentOwner",
          "type": "address"
        },
        {
          "indexed": false,
          "internalType": "string",
          "name": "status",
          "type": "string"
        }
      ],
      "name": "property",
      "type": "event"
    },
    {
      "anonymous": false,
      "inputs": [
        {
          "indexed": false,
          "internalType": "address",
          "name": "_sellerId",
          "type": "address"
        },
        {
          "indexed": false,
          "internalType": "string",
          "name": "message",
          "type": "string"
        }
      ],
      "name": "registryRequest",
      "type": "event"
    },
    {
      "anonymous": false,
      "inputs": [
        {
          "indexed": false,
          "internalType": "address",
          "name": "_buyerId",
          "type": "address"
        }
      ],
      "name": "requestApproved",
      "type": "event"
    },
    {
      "inputs": [
        {
          "internalType": "bytes32",
          "name": "",
          "type": "bytes32"
        },
        {
          "internalType": "uint256",
          "name": "",
          "type": "uint256"
        },
        {
          "internalType": "address",
          "name": "",
          "type": "address"
        },
        {
          "internalType": "uint256",
          "name": "",
          "type": "uint256"
        }
      ],
      "name": "_LandConsensus",
      "outputs": [
        {
          "internalType": "bool",
          "name": "",
          "type": "bool"
        }
      ],
      "stateMutability": "view",
      "type": "function"
    },
    {
      "inputs": [
        {
          "internalType": "bytes32",
          "name": "",
          "type": "bytes32"
        },
        {
          "internalType": "uint256",
          "name": "",
          "type": "uint256"
        },
        {
          "internalType": "address",
          "name": "",
          "type": "address"
        }
      ],
      "name": "_requestLandRegistration",
      "outputs": [
        {
          "internalType": "uint256",
          "name": "propertyPID",
          "type": "uint256"
        },
        {
          "internalType": "uint256",
          "name": "area",
          "type": "uint256"
        },
        {
          "internalType": "string",
          "name": "city",
          "type": "string"
        },
        {
          "internalType": "string",
          "name": "state",
          "type": "string"
        },
        {
          "internalType": "string",
          "name": "district",
          "type": "string"
        },
        {
          "internalType": "uint256",
          "name": "landPrice",
          "type": "uint256"
        },
        {
          "internalType": "bytes32",
          "name": "localHash",
          "type": "bytes32"
        },
        {
          "internalType": "address",
          "name": "currentOwner",
          "type": "address"
        },
        {
          "internalType": "string",
          "name": "status",
          "type": "string"
        }
      ],
      "stateMutability": "view",
      "type": "function"
    },
    {
      "inputs": [
        {
          "internalType": "address",
          "name": "_id",
          "type": "address"
        },
        {
          "internalType": "uint256",
          "name": "_jobId",
          "type": "uint256"
        },
        {
          "internalType": "string",
          "name": "_name",
          "type": "string"
        },
        {
          "internalType": "string",
          "name": "_designation",
          "type": "string"
        },
        {
          "internalType": "int256",
          "name": "_age",
          "type": "int256"
        }
      ],
      "name": "AddLandOfficers",
      "outputs": [],
      "stateMutability": "nonpayable",
      "type": "function"
    },
    {
      "inputs": [
        {
          "internalType": "address",
          "name": "_id",
          "type": "address"
        }
      ],
      "name": "getOfficers",
      "outputs": [
        {
          "components": [
            {
              "internalType": "address",
              "name": "id",
              "type": "address"
            },
            {
              "internalType": "uint256",
              "name": "jobId",
              "type": "uint256"
            },
            {
              "internalType": "string",
              "name": "name",
              "type": "string"
            },
            {
              "internalType": "string",
              "name": "designation",
              "type": "string"
            },
            {
              "internalType": "int256",
              "name": "age",
              "type": "int256"
            }
          ],
          "internalType": "struct LandInspector.LandInspectorDetails",
          "name": "",
          "type": "tuple"
        }
      ],
      "stateMutability": "view",
      "type": "function"
    },
    {
      "inputs": [
        {
          "internalType": "address",
          "name": "_id",
          "type": "address"
        }
      ],
      "name": "ApproveBuyer",
      "outputs": [],
      "stateMutability": "nonpayable",
      "type": "function"
    },
    {
      "inputs": [
        {
          "internalType": "address",
          "name": "_id",
          "type": "address"
        }
      ],
      "name": "RejectBuyer",
      "outputs": [],
      "stateMutability": "nonpayable",
      "type": "function"
    },
    {
      "inputs": [
        {
          "internalType": "address",
          "name": "_id",
          "type": "address"
        }
      ],
      "name": "fetchBuyerDetails",
      "outputs": [
        {
          "components": [
            {
              "internalType": "address",
              "name": "id",
              "type": "address"
            },
            {
              "internalType": "string",
              "name": "name",
              "type": "string"
            },
            {
              "internalType": "uint256",
              "name": "age",
              "type": "uint256"
            },
            {
              "internalType": "string",
              "name": "city",
              "type": "string"
            },
            {
              "internalType": "string",
              "name": "state",
              "type": "string"
            },
            {
              "internalType": "string",
              "name": "aadharNumber",
              "type": "string"
            },
            {
              "internalType": "string",
              "name": "panNumber",
              "type": "string"
            }
          ],
          "internalType": "struct Buyer.BuyerDetails",
          "name": "",
          "type": "tuple"
        }
      ],
      "stateMutability": "view",
      "type": "function"
    },
    {
      "inputs": [
        {
          "internalType": "address",
          "name": "_id",
          "type": "address"
        }
      ],
      "name": "ApproveSeller",
      "outputs": [],
      "stateMutability": "nonpayable",
      "type": "function"
    },
    {
      "inputs": [
        {
          "internalType": "address",
          "name": "_id",
          "type": "address"
        }
      ],
      "name": "rejectSeller",
      "outputs": [],
      "stateMutability": "nonpayable",
      "type": "function"
    },
    {
      "inputs": [
        {
          "internalType": "address",
          "name": "_id",
          "type": "address"
        }
      ],
      "name": "fetchSellerDetails",
      "outputs": [
        {
          "components": [
            {
              "internalType": "address",
              "name": "id",
              "type": "address"
            },
            {
              "internalType": "string",
              "name": "name",
              "type": "string"
            },
            {
              "internalType": "uint256",
              "name": "age",
              "type": "uint256"
            },
            {
              "internalType": "string",
              "name": "city",
              "type": "string"
            },
            {
              "internalType": "string",
              "name": "state",
              "type": "string"
            },
            {
              "internalType": "string",
              "name": "aadharNumber",
              "type": "string"
            },
            {
              "internalType": "string",
              "name": "panNumber",
              "type": "string"
            }
          ],
          "internalType": "struct Seller.SellerDetails",
          "name": "",
          "type": "tuple"
        }
      ],
      "stateMutability": "view",
      "type": "function"
    },
    {
      "inputs": [
        {
          "internalType": "address",
          "name": "_id",
          "type": "address"
        },
        {
          "internalType": "string",
          "name": "_city",
          "type": "string"
        },
        {
          "internalType": "string",
          "name": "_state",
          "type": "string"
        },
        {
          "internalType": "string",
          "name": "_district",
          "type": "string"
        },
        {
          "internalType": "uint256",
          "name": "_propertyPID",
          "type": "uint256"
        }
      ],
      "name": "ApproveLand",
      "outputs": [],
      "stateMutability": "nonpayable",
      "type": "function"
    },
    {
      "inputs": [
        {
          "internalType": "address",
          "name": "_id",
          "type": "address"
        },
        {
          "internalType": "string",
          "name": "_city",
          "type": "string"
        },
        {
          "internalType": "string",
          "name": "_state",
          "type": "string"
        },
        {
          "internalType": "string",
          "name": "_district",
          "type": "string"
        },
        {
          "internalType": "uint256",
          "name": "_propertyPID",
          "type": "uint256"
        }
      ],
      "name": "RejectLandRegistry",
      "outputs": [],
      "stateMutability": "nonpayable",
      "type": "function"
    },
    {
      "inputs": [
        {
          "internalType": "uint256",
          "name": "_propertyPID",
          "type": "uint256"
        },
        {
          "internalType": "string",
          "name": "_city",
          "type": "string"
        },
        {
          "internalType": "string",
          "name": "_state",
          "type": "string"
        },
        {
          "internalType": "string",
          "name": "_district",
          "type": "string"
        }
      ],
      "name": "fetchLandDetails",
      "outputs": [],
      "stateMutability": "nonpayable",
      "type": "function"
    },
    {
      "inputs": [
        {
          "components": [
            {
              "internalType": "uint256",
              "name": "propertyPID",
              "type": "uint256"
            },
            {
              "internalType": "uint256",
              "name": "area",
              "type": "uint256"
            },
            {
              "internalType": "string",
              "name": "city",
              "type": "string"
            },
            {
              "internalType": "string",
              "name": "state",
              "type": "string"
            },
            {
              "internalType": "string",
              "name": "district",
              "type": "string"
            },
            {
              "internalType": "uint256",
              "name": "landPrice",
              "type": "uint256"
            },
            {
              "internalType": "bytes32",
              "name": "localHash",
              "type": "bytes32"
            },
            {
              "internalType": "address",
              "name": "currentOwner",
              "type": "address"
            },
            {
              "internalType": "string",
              "name": "status",
              "type": "string"
            }
          ],
          "internalType": "struct Registry.LandDetails",
          "name": "Land1",
          "type": "tuple"
        }
      ],
      "name": "fetchLandDetails",
      "outputs": [],
      "stateMutability": "nonpayable",
      "type": "function"
    },
    {
      "inputs": [
        {
          "internalType": "address",
          "name": "_id",
          "type": "address"
        },
        {
          "internalType": "string",
          "name": "name",
          "type": "string"
        },
        {
          "internalType": "uint256",
          "name": "age",
          "type": "uint256"
        },
        {
          "internalType": "string",
          "name": "city",
          "type": "string"
        },
        {
          "internalType": "string",
          "name": "state",
          "type": "string"
        },
        {
          "internalType": "string",
          "name": "aadharNumber",
          "type": "string"
        },
        {
          "internalType": "string",
          "name": "panNumber",
          "type": "string"
        }
      ],
      "name": "AddBuyer",
      "outputs": [],
      "stateMutability": "nonpayable",
      "type": "function"
    },
    {
      "inputs": [
        {
          "internalType": "uint256",
          "name": "_propertyPID",
          "type": "uint256"
        },
        {
          "internalType": "string",
          "name": "_city",
          "type": "string"
        },
        {
          "internalType": "string",
          "name": "_state",
          "type": "string"
        },
        {
          "internalType": "string",
          "name": "_district",
          "type": "string"
        },
        {
          "internalType": "uint256",
          "name": "_bid",
          "type": "uint256"
        }
      ],
      "name": "RequestLand",
      "outputs": [],
      "stateMutability": "nonpayable",
      "type": "function"
    },
    {
      "inputs": [
        {
          "internalType": "address payable",
          "name": "receiverId",
          "type": "address"
        },
        {
          "internalType": "uint256",
          "name": "_propertyPID",
          "type": "uint256"
        },
        {
          "internalType": "string",
          "name": "_city",
          "type": "string"
        },
        {
          "internalType": "string",
          "name": "_state",
          "type": "string"
        },
        {
          "internalType": "string",
          "name": "_district",
          "type": "string"
        }
      ],
      "name": "LandPayment",
      "outputs": [],
      "stateMutability": "payable",
      "type": "function"
    },
    {
      "inputs": [
        {
          "internalType": "address",
          "name": "_id",
          "type": "address"
        },
        {
          "internalType": "string",
          "name": "_city",
          "type": "string"
        },
        {
          "internalType": "string",
          "name": "_state",
          "type": "string"
        },
        {
          "internalType": "string",
          "name": "_district",
          "type": "string"
        },
        {
          "internalType": "uint256",
          "name": "_propertyPID",
          "type": "uint256"
        }
      ],
      "name": "getLandStatus",
      "outputs": [
        {
          "internalType": "string",
          "name": "",
          "type": "string"
        }
      ],
      "stateMutability": "view",
      "type": "function"
    },
    {
      "inputs": [
        {
          "internalType": "address",
          "name": "_id",
          "type": "address"
        },
        {
          "internalType": "string",
          "name": "name",
          "type": "string"
        },
        {
          "internalType": "uint256",
          "name": "age",
          "type": "uint256"
        },
        {
          "internalType": "string",
          "name": "city",
          "type": "string"
        },
        {
          "internalType": "string",
          "name": "state",
          "type": "string"
        },
        {
          "internalType": "string",
          "name": "aadharNumber",
          "type": "string"
        },
        {
          "internalType": "string",
          "name": "panNumber",
          "type": "string"
        }
      ],
      "name": "AddSeller",
      "outputs": [],
      "stateMutability": "nonpayable",
      "type": "function"
    },
    {
      "inputs": [
        {
          "internalType": "uint256",
          "name": "_propertyPID",
          "type": "uint256"
        },
        {
          "internalType": "uint256",
          "name": "_area",
          "type": "uint256"
        },
        {
          "internalType": "string",
          "name": "_city",
          "type": "string"
        },
        {
          "internalType": "string",
          "name": "_state",
          "type": "string"
        },
        {
          "internalType": "string",
          "name": "_district",
          "type": "string"
        },
        {
          "internalType": "uint256",
          "name": "_landPrice",
          "type": "uint256"
        }
      ],
      "name": "AddLand",
      "outputs": [],
      "stateMutability": "nonpayable",
      "type": "function"
    },
    {
      "inputs": [
        {
          "internalType": "uint256",
          "name": "_propertyPID",
          "type": "uint256"
        },
        {
          "internalType": "string",
          "name": "_city",
          "type": "string"
        },
        {
          "internalType": "string",
          "name": "_state",
          "type": "string"
        },
        {
          "internalType": "string",
          "name": "_district",
          "type": "string"
        },
        {
          "internalType": "address",
          "name": "buyerId",
          "type": "address"
        }
      ],
      "name": "ApproveBuyRequest",
      "outputs": [],
      "stateMutability": "nonpayable",
      "type": "function"
    }
  ],
  "bytecode": "0x60806040526040518060a0016040528061092561ffff1681526020016111d761ffff168152602001611ed161ffff1681526020016126a461ffff16815260200161231e61ffff1681525060009060056200005b92919062000466565b506040518060a001604052806040518060400160405280601381526020017f44657075747920436f6d6d697373696f6e65720000000000000000000000000081525081526020016040518060400160405280600981526020017f54656873696c646172000000000000000000000000000000000000000000000081525081526020016040518060400160405280600e81526020017f436976696c20456e67696e65657200000000000000000000000000000000000081525081526020016040518060400160405280600881526020017f526567697374617200000000000000000000000000000000000000000000000081525081526020016040518060400160405280600a81526020017f4163636f756e74616e740000000000000000000000000000000000000000000081525081525060019060056200019e929190620004be565b50348015620001ac57600080fd5b5033601160006101000a81548173ffffffffffffffffffffffffffffffffffffffff021916908373ffffffffffffffffffffffffffffffffffffffff16021790555062000297601160009054906101000a900473ffffffffffffffffffffffffffffffffffffffff166109256040518060400160405280600d81526020017f506561726c204b6f7468617269000000000000000000000000000000000000008152506040518060400160405280601381526020017f44657075747920436f6d6d697373696f6e65720000000000000000000000000081525060156200041460201b620039d71760201c565b60056000601160009054906101000a900473ffffffffffffffffffffffffffffffffffffffff1673ffffffffffffffffffffffffffffffffffffffff1673ffffffffffffffffffffffffffffffffffffffff16815260200190815260200160002060008201518160000160006101000a81548173ffffffffffffffffffffffffffffffffffffffff021916908373ffffffffffffffffffffffffffffffffffffffff1602179055506020820151816001015560408201518160020190805190602001906200036792919062000525565b5060608201518160030190805190602001906200038692919062000525565b50608082015181600401559050506001600a6000601160009054906101000a900473ffffffffffffffffffffffffffffffffffffffff1673ffffffffffffffffffffffffffffffffffffffff1673ffffffffffffffffffffffffffffffffffffffff16815260200190815260200160002060006101000a81548160ff021916908315150217905550620006ec565b6200041e620005b6565b6040518060a001604052808773ffffffffffffffffffffffffffffffffffffffff16815260200186815260200185815260200184815260200183815250905095945050505050565b828054828255906000526020600020908101928215620004ab579160200282015b82811115620004aa578251829061ffff1690559160200191906001019062000487565b5b509050620004ba9190620005fb565b5090565b82805482825590600052602060002090810192821562000512579160200282015b82811115620005115782518290805190602001906200050092919062000525565b5091602001919060010190620004df565b5b5090506200052191906200061a565b5090565b8280546200053390620006b7565b90600052602060002090601f016020900481019282620005575760008555620005a3565b82601f106200057257805160ff1916838001178555620005a3565b82800160010185558215620005a3579182015b82811115620005a257825182559160200191906001019062000585565b5b509050620005b29190620005fb565b5090565b6040518060a00160405280600073ffffffffffffffffffffffffffffffffffffffff168152602001600081526020016060815260200160608152602001600081525090565b5b8082111562000616576000816000905550600101620005fc565b5090565b5b808211156200063e576000818162000634919062000642565b506001016200061b565b5090565b5080546200065090620006b7565b6000825580601f1062000664575062000685565b601f016020900490600052602060002090810190620006849190620005fb565b5b50565b7f4e487b7100000000000000000000000000000000000000000000000000000000600052602260045260246000fd5b60006002820490506001821680620006d057607f821691505b602082108103620006e657620006e562000688565b5b50919050565b615f7580620006fc6000396000f3fe60806040526004361061012a5760003560e01c806389d1845d116100ab578063bb6368801161006f578063bb636880146103ee578063cb0d284514610417578063e1ecc79414610454578063e29dd6b21461047d578063e4511deb146104a6578063e4822792146104e35761012a565b806389d1845d146102dd578063969774b51461031a5780639b7dc8001461035f5780639c11c44814610388578063af219d82146103b15761012a565b80632be12ff3116100f25780632be12ff31461021057806331bc97081461023957806378d1b8cb146102625780637f4a8d251461028b57806383c35242146102b45761012a565b806302c712c91461012f57806307bf939e146101585780631de7a48c1461018157806321531743146101be57806321661d81146101e7575b600080fd5b34801561013b57600080fd5b5061015660048036038101906101519190614290565b6104ff565b005b34801561016457600080fd5b5061017f600480360381019061017a91906143f4565b610727565b005b34801561018d57600080fd5b506101a860048036038101906101a391906144a7565b6108c0565b6040516101b59190614632565b60405180910390f35b3480156101ca57600080fd5b506101e560048036038101906101e091906144a7565b610c53565b005b3480156101f357600080fd5b5061020e60048036038101906102099190614654565b610dc6565b005b34801561021c57600080fd5b5061023760048036038101906102329190614723565b611500565b005b34801561024557600080fd5b50610260600480360381019061025b91906144a7565b6118c6565b005b34801561026e57600080fd5b50610289600480360381019061028491906144a7565b611a39565b005b34801561029757600080fd5b506102b260048036038101906102ad91906147f2565b611bac565b005b3480156102c057600080fd5b506102db60048036038101906102d69190614290565b611cfc565b005b3480156102e957600080fd5b5061030460048036038101906102ff91906144a7565b611f24565b6040516103119190614965565b60405180910390f35b34801561032657600080fd5b50610341600480360381019061033c91906149bd565b6122b7565b60405161035699989796959493929190614a87565b60405180910390f35b34801561036b57600080fd5b5061038660048036038101906103819190614b30565b61255f565b005b34801561039457600080fd5b506103af60048036038101906103aa9190614654565b612b2c565b005b3480156103bd57600080fd5b506103d860048036038101906103d391906144a7565b612e4b565b6040516103e59190614c9d565b60405180910390f35b3480156103fa57600080fd5b5061041560048036038101906104109190614e19565b6130be565b005b34801561042357600080fd5b5061043e60048036038101906104399190614654565b61312d565b60405161044b9190614e62565b60405180910390f35b34801561046057600080fd5b5061047b600480360381019061047691906144a7565b6132f5565b005b34801561048957600080fd5b506104a4600480360381019061049f9190614e84565b613468565b005b3480156104b257600080fd5b506104cd60048036038101906104c89190614f53565b6135ba565b6040516104da9190614fd5565b60405180910390f35b6104fd60048036038101906104f8919061502e565b61360d565b005b60001515600b60008973ffffffffffffffffffffffffffffffffffffffff1673ffffffffffffffffffffffffffffffffffffffff16815260200190815260200160002060009054906101000a900460ff1615151461055c57600080fd5b61056b87878787878787613a27565b600760008973ffffffffffffffffffffffffffffffffffffffff1673ffffffffffffffffffffffffffffffffffffffff16815260200190815260200160002060008201518160000160006101000a81548173ffffffffffffffffffffffffffffffffffffffff021916908373ffffffffffffffffffffffffffffffffffffffff160217905550602082015181600101908051906020019061060d929190613d56565b50604082015181600201556060820151816003019080519060200190610634929190613d56565b506080820151816004019080519060200190610651929190613d56565b5060a082015181600501908051906020019061066e929190613d56565b5060c082015181600601908051906020019061068b929190613d56565b509050506001600b60008973ffffffffffffffffffffffffffffffffffffffff1673ffffffffffffffffffffffffffffffffffffffff16815260200190815260200160002060006101000a81548160ff0219169083151502179055507f0d8d636375a5c89a44d886dc1bd7257c82dbf9d475396c77cdbf443158ecf4e8876040516107169190615195565b60405180910390a150505050505050565b600a60003373ffffffffffffffffffffffffffffffffffffffff1673ffffffffffffffffffffffffffffffffffffffff16815260200190815260200160002060009054906101000a900460ff1661077d57600080fd5b61078a85858585856139d7565b600560008773ffffffffffffffffffffffffffffffffffffffff1673ffffffffffffffffffffffffffffffffffffffff16815260200190815260200160002060008201518160000160006101000a81548173ffffffffffffffffffffffffffffffffffffffff021916908373ffffffffffffffffffffffffffffffffffffffff160217905550602082015181600101556040820151816002019080519060200190610836929190613d56565b506060820151816003019080519060200190610853929190613d56565b50608082015181600401559050506001600a60008773ffffffffffffffffffffffffffffffffffffffff1673ffffffffffffffffffffffffffffffffffffffff16815260200190815260200160002060006101000a81548160ff0219169083151502179055505050505050565b6108c8613ddc565b600660008373ffffffffffffffffffffffffffffffffffffffff1673ffffffffffffffffffffffffffffffffffffffff1681526020019081526020016000206040518060e00160405290816000820160009054906101000a900473ffffffffffffffffffffffffffffffffffffffff1673ffffffffffffffffffffffffffffffffffffffff1673ffffffffffffffffffffffffffffffffffffffff168152602001600182018054610978906151f2565b80601f01602080910402602001604051908101604052809291908181526020018280546109a4906151f2565b80156109f15780601f106109c6576101008083540402835291602001916109f1565b820191906000526020600020905b8154815290600101906020018083116109d457829003601f168201915b5050505050815260200160028201548152602001600382018054610a14906151f2565b80601f0160208091040260200160405190810160405280929190818152602001828054610a40906151f2565b8015610a8d5780601f10610a6257610100808354040283529160200191610a8d565b820191906000526020600020905b815481529060010190602001808311610a7057829003601f168201915b50505050508152602001600482018054610aa6906151f2565b80601f0160208091040260200160405190810160405280929190818152602001828054610ad2906151f2565b8015610b1f5780601f10610af457610100808354040283529160200191610b1f565b820191906000526020600020905b815481529060010190602001808311610b0257829003601f168201915b50505050508152602001600582018054610b38906151f2565b80601f0160208091040260200160405190810160405280929190818152602001828054610b64906151f2565b8015610bb15780601f10610b8657610100808354040283529160200191610bb1565b820191906000526020600020905b815481529060010190602001808311610b9457829003601f168201915b50505050508152602001600682018054610bca906151f2565b80601f0160208091040260200160405190810160405280929190818152602001828054610bf6906151f2565b8015610c435780601f10610c1857610100808354040283529160200191610c43565b820191906000526020600020905b815481529060010190602001808311610c2657829003601f168201915b5050505050815250509050919050565b600a60003373ffffffffffffffffffffffffffffffffffffffff1673ffffffffffffffffffffffffffffffffffffffff16815260200190815260200160002060009054906101000a900460ff16610cdf576040517f08c379a0000000000000000000000000000000000000000000000000000000008152600401610cd69061526f565b60405180910390fd5b600c60008273ffffffffffffffffffffffffffffffffffffffff1673ffffffffffffffffffffffffffffffffffffffff16815260200190815260200160002060009054906101000a900460ff16610d6b576040517f08c379a0000000000000000000000000000000000000000000000000000000008152600401610d62906152db565b60405180910390fd5b6001600e60008373ffffffffffffffffffffffffffffffffffffffff1673ffffffffffffffffffffffffffffffffffffffff16815260200190815260200160002060006101000a81548160ff02191690831515021790555050565b600a60003373ffffffffffffffffffffffffffffffffffffffff1673ffffffffffffffffffffffffffffffffffffffff16815260200190815260200160002060009054906101000a900460ff16610e52576040517f08c379a0000000000000000000000000000000000000000000000000000000008152600401610e499061526f565b60405180910390fd5b60006002858585604051602001610e6b93929190615337565b604051602081830303815290604052604051610e8791906153af565b602060405180830381855afa158015610ea4573d6000803e3d6000fd5b5050506040513d601f19601f82011682018060405250810190610ec791906153db565b905073__StringUtils___________________________6346bdca9a60036000848152602001908152602001600020600085815260200190815260200160002060008973ffffffffffffffffffffffffffffffffffffffff1673ffffffffffffffffffffffffffffffffffffffff1681526020019081526020016000206008016040518263ffffffff1660e01b8152600401610f6391906154fa565b602060405180830381865af4158015610f80573d6000803e3d6000fd5b505050506040513d601f19601f82011682018060405250810190610fa4919061555b565b610fad57600080fd5b6000808060008054905090506000600560003373ffffffffffffffffffffffffffffffffffffffff1673ffffffffffffffffffffffffffffffffffffffff16815260200190815260200160002060010154905060005b8281101561104f5781600082815481106110205761101f615588565b5b90600052602060002001540361103c576001945080935061104f565b8080611047906155e6565b915050611003565b506001151584151514611097576040517f08c379a000000000000000000000000000000000000000000000000000000000815260040161108e906156a0565b60405180910390fd5b60001515600f6000878152602001908152602001600020600088815260200190815260200160002060009054906101000a900460ff1615151461110f576040517f08c379a00000000000000000000000000000000000000000000000000000000081526004016111069061570c565b60405180910390fd5b600160046000878152602001908152602001600020600088815260200190815260200160002060008c73ffffffffffffffffffffffffffffffffffffffff1673ffffffffffffffffffffffffffffffffffffffff168152602001908152602001600020846005811061118457611183615588565b5b602091828204019190066101000a81548160ff0219169083151502179055506000805b8381101561126357600015156004600089815260200190815260200160002060008a815260200190815260200160002060008e73ffffffffffffffffffffffffffffffffffffffff1673ffffffffffffffffffffffffffffffffffffffff168152602001908152602001600020826005811061122657611225615588565b5b602091828204019190069054906101000a900460ff1615150361124c5760009150611263565b60019150808061125b906155e6565b9150506111a7565b5060011515811515036114f3576040518060400160405280600b81526020017f436173652d436c6f73656400000000000000000000000000000000000000000081525060036000888152602001908152602001600020600089815260200190815260200160002060008d73ffffffffffffffffffffffffffffffffffffffff1673ffffffffffffffffffffffffffffffffffffffff168152602001908152602001600020600801908051906020019061131d929190613d56565b5060036000878152602001908152602001600020600088815260200190815260200160002060008c73ffffffffffffffffffffffffffffffffffffffff1673ffffffffffffffffffffffffffffffffffffffff168152602001908152602001600020600260008881526020019081526020016000206000898152602001908152602001600020600082015481600001556001820154816001015560028201816002019080546113cb906151f2565b6113d6929190613e2f565b5060038201816003019080546113eb906151f2565b6113f6929190613e2f565b50600482018160040190805461140b906151f2565b611416929190613e2f565b5060058201548160050155600682015481600601556007820160009054906101000a900473ffffffffffffffffffffffffffffffffffffffff168160070160006101000a81548173ffffffffffffffffffffffffffffffffffffffff021916908373ffffffffffffffffffffffffffffffffffffffff16021790555060088201816008019080546114a6906151f2565b6114b1929190613e2f565b509050506001600f6000888152602001908152602001600020600089815260200190815260200160002060006101000a81548160ff0219169083151502179055505b5050505050505050505050565b600c60003373ffffffffffffffffffffffffffffffffffffffff1673ffffffffffffffffffffffffffffffffffffffff16815260200190815260200160002060009054906101000a900460ff1661155657600080fd5b6000600285858560405160200161156f93929190615337565b60405160208183030381529060405260405161158b91906153af565b602060405180830381855afa1580156115a8573d6000803e3d6000fd5b5050506040513d601f19601f820116820180604052508101906115cb91906153db565b905060011515600f6000838152602001908152602001600020600088815260200190815260200160002060009054906101000a900460ff16151514611645576040517f08c379a000000000000000000000000000000000000000000000000000000000815260040161163c90615778565b60405180910390fd5b600073ffffffffffffffffffffffffffffffffffffffff1660086000838152602001908152602001600020600088815260200190815260200160002060003373ffffffffffffffffffffffffffffffffffffffff1673ffffffffffffffffffffffffffffffffffffffff16815260200190815260200160002060000160009054906101000a900473ffffffffffffffffffffffffffffffffffffffff1673ffffffffffffffffffffffffffffffffffffffff1614611738576040517f08c379a000000000000000000000000000000000000000000000000000000000815260040161172f906157e4565b60405180910390fd5b61178e60026000838152602001908152602001600020600088815260200190815260200160002060070160009054906101000a900473ffffffffffffffffffffffffffffffffffffffff16338389866000613a85565b60086000838152602001908152602001600020600088815260200190815260200160002060003373ffffffffffffffffffffffffffffffffffffffff1673ffffffffffffffffffffffffffffffffffffffff16815260200190815260200160002060008201518160000160006101000a81548173ffffffffffffffffffffffffffffffffffffffff021916908373ffffffffffffffffffffffffffffffffffffffff16021790555060208201518160010160006101000a81548173ffffffffffffffffffffffffffffffffffffffff021916908373ffffffffffffffffffffffffffffffffffffffff16021790555060408201518160020155606082015181600301556080820151816004015560a08201518160050160006101000a81548160ff021916908315150217905550905050505050505050565b600a60003373ffffffffffffffffffffffffffffffffffffffff1673ffffffffffffffffffffffffffffffffffffffff16815260200190815260200160002060009054906101000a900460ff16611952576040517f08c379a00000000000000000000000000000000000000000000000000000000081526004016119499061526f565b60405180910390fd5b600b60008273ffffffffffffffffffffffffffffffffffffffff1673ffffffffffffffffffffffffffffffffffffffff16815260200190815260200160002060009054906101000a900460ff166119de576040517f08c379a00000000000000000000000000000000000000000000000000000000081526004016119d590615850565b60405180910390fd5b6001600d60008373ffffffffffffffffffffffffffffffffffffffff1673ffffffffffffffffffffffffffffffffffffffff16815260200190815260200160002060006101000a81548160ff02191690831515021790555050565b600a60003373ffffffffffffffffffffffffffffffffffffffff1673ffffffffffffffffffffffffffffffffffffffff16815260200190815260200160002060009054906101000a900460ff16611ac5576040517f08c379a0000000000000000000000000000000000000000000000000000000008152600401611abc9061526f565b60405180910390fd5b600c60008273ffffffffffffffffffffffffffffffffffffffff1673ffffffffffffffffffffffffffffffffffffffff16815260200190815260200160002060009054906101000a900460ff16611b51576040517f08c379a0000000000000000000000000000000000000000000000000000000008152600401611b48906152db565b60405180910390fd5b6000600e60008373ffffffffffffffffffffffffffffffffffffffff1673ffffffffffffffffffffffffffffffffffffffff16815260200190815260200160002060006101000a81548160ff02191690831515021790555050565b60006002848484604051602001611bc593929190615337565b604051602081830303815290604052604051611be191906153af565b602060405180830381855afa158015611bfe573d6000803e3d6000fd5b5050506040513d601f19601f82011682018060405250810190611c2191906153db565b905060011515600f6000838152602001908152602001600020600087815260200190815260200160002060009054906101000a900460ff16151514611c9b576040517f08c379a0000000000000000000000000000000000000000000000000000000008152600401611c9290615778565b60405180910390fd5b7ff403d59920f6e30025d85cbfa4aa3f9c27102c9543d77295ff00cd7ad3439843600260008381526020019081526020016000206000878152602001908152602001600020604051611ced9190615a9c565b60405180910390a15050505050565b60001515600c60008973ffffffffffffffffffffffffffffffffffffffff1673ffffffffffffffffffffffffffffffffffffffff16815260200190815260200160002060009054906101000a900460ff16151514611d5957600080fd5b611d6887878787878787613af4565b600660008973ffffffffffffffffffffffffffffffffffffffff1673ffffffffffffffffffffffffffffffffffffffff16815260200190815260200160002060008201518160000160006101000a81548173ffffffffffffffffffffffffffffffffffffffff021916908373ffffffffffffffffffffffffffffffffffffffff1602179055506020820151816001019080519060200190611e0a929190613d56565b50604082015181600201556060820151816003019080519060200190611e31929190613d56565b506080820151816004019080519060200190611e4e929190613d56565b5060a0820151816005019080519060200190611e6b929190613d56565b5060c0820151816006019080519060200190611e88929190613d56565b509050506001600c60008973ffffffffffffffffffffffffffffffffffffffff1673ffffffffffffffffffffffffffffffffffffffff16815260200190815260200160002060006101000a81548160ff0219169083151502179055507f0d8d636375a5c89a44d886dc1bd7257c82dbf9d475396c77cdbf443158ecf4e887604051611f139190615195565b60405180910390a150505050505050565b611f2c613ebc565b600760008373ffffffffffffffffffffffffffffffffffffffff1673ffffffffffffffffffffffffffffffffffffffff1681526020019081526020016000206040518060e00160405290816000820160009054906101000a900473ffffffffffffffffffffffffffffffffffffffff1673ffffffffffffffffffffffffffffffffffffffff1673ffffffffffffffffffffffffffffffffffffffff168152602001600182018054611fdc906151f2565b80601f0160208091040260200160405190810160405280929190818152602001828054612008906151f2565b80156120555780601f1061202a57610100808354040283529160200191612055565b820191906000526020600020905b81548152906001019060200180831161203857829003601f168201915b5050505050815260200160028201548152602001600382018054612078906151f2565b80601f01602080910402602001604051908101604052809291908181526020018280546120a4906151f2565b80156120f15780601f106120c6576101008083540402835291602001916120f1565b820191906000526020600020905b8154815290600101906020018083116120d457829003601f168201915b5050505050815260200160048201805461210a906151f2565b80601f0160208091040260200160405190810160405280929190818152602001828054612136906151f2565b80156121835780601f1061215857610100808354040283529160200191612183565b820191906000526020600020905b81548152906001019060200180831161216657829003601f168201915b5050505050815260200160058201805461219c906151f2565b80601f01602080910402602001604051908101604052809291908181526020018280546121c8906151f2565b80156122155780601f106121ea57610100808354040283529160200191612215565b820191906000526020600020905b8154815290600101906020018083116121f857829003601f168201915b5050505050815260200160068201805461222e906151f2565b80601f016020809104026020016040519081016040528092919081815260200182805461225a906151f2565b80156122a75780601f1061227c576101008083540402835291602001916122a7565b820191906000526020600020905b81548152906001019060200180831161228a57829003601f168201915b5050505050815250509050919050565b60036020528260005260406000206020528160005260406000206020528060005260406000206000925092505050806000015490806001015490806002018054612300906151f2565b80601f016020809104026020016040519081016040528092919081815260200182805461232c906151f2565b80156123795780601f1061234e57610100808354040283529160200191612379565b820191906000526020600020905b81548152906001019060200180831161235c57829003601f168201915b50505050509080600301805461238e906151f2565b80601f01602080910402602001604051908101604052809291908181526020018280546123ba906151f2565b80156124075780601f106123dc57610100808354040283529160200191612407565b820191906000526020600020905b8154815290600101906020018083116123ea57829003601f168201915b50505050509080600401805461241c906151f2565b80601f0160208091040260200160405190810160405280929190818152602001828054612448906151f2565b80156124955780601f1061246a57610100808354040283529160200191612495565b820191906000526020600020905b81548152906001019060200180831161247857829003601f168201915b5050505050908060050154908060060154908060070160009054906101000a900473ffffffffffffffffffffffffffffffffffffffff16908060080180546124dc906151f2565b80601f0160208091040260200160405190810160405280929190818152602001828054612508906151f2565b80156125555780601f1061252a57610100808354040283529160200191612555565b820191906000526020600020905b81548152906001019060200180831161253857829003601f168201915b5050505050905089565b600b60003373ffffffffffffffffffffffffffffffffffffffff1673ffffffffffffffffffffffffffffffffffffffff16815260200190815260200160002060009054906101000a900460ff166125b557600080fd5b600060028585856040516020016125ce93929190615337565b6040516020818303038152906040526040516125ea91906153af565b602060405180830381855afa158015612607573d6000803e3d6000fd5b5050506040513d601f19601f8201168201806040525081019061262a91906153db565b9050600060036000838152602001908152602001600020600089815260200190815260200160002060003373ffffffffffffffffffffffffffffffffffffffff1673ffffffffffffffffffffffffffffffffffffffff168152602001908152602001600020600801805461269d906151f2565b80601f01602080910402602001604051908101604052809291908181526020018280546126c9906151f2565b80156127165780601f106126eb57610100808354040283529160200191612716565b820191906000526020600020905b8154815290600101906020018083116126f957829003601f168201915b5050505050905060001515600f600084815260200190815260200160002060008a815260200190815260200160002060009054906101000a900460ff16151514612795576040517f08c379a000000000000000000000000000000000000000000000000000000000815260040161278c90615b30565b60405180910390fd5b73__StringUtils___________________________6346bdca9a826040518263ffffffff1660e01b81526004016127cc9190615bd5565b602060405180830381865af41580156127e9573d6000803e3d6000fd5b505050506040513d601f19601f8201168201806040525081019061280d919061555b565b8061288c575073__StringUtils___________________________6346bdca9a826040518263ffffffff1660e01b815260040161284a9190615c30565b602060405180830381865af4158015612867573d6000803e3d6000fd5b505050506040513d601f19601f8201168201806040525081019061288b919061555b565b5b8061290b575073__StringUtils___________________________6346bdca9a826040518263ffffffff1660e01b81526004016128c99190615cb1565b602060405180830381865af41580156128e6573d6000803e3d6000fd5b505050506040513d601f19601f8201168201806040525081019061290a919061555b565b5b61294a576040517f08c379a000000000000000000000000000000000000000000000000000000000815260040161294190615d58565b60405180910390fd5b6129a387878787670de0b6b3a7640000886129659190615d78565b8d88336040518060400160405280600781526020017f50656e64696e6700000000000000000000000000000000000000000000000000815250613b52565b6003600084815260200190815260200160002060008a815260200190815260200160002060003373ffffffffffffffffffffffffffffffffffffffff1673ffffffffffffffffffffffffffffffffffffffff16815260200190815260200160002060008201518160000155602082015181600101556040820151816002019080519060200190612a34929190613d56565b506060820151816003019080519060200190612a51929190613d56565b506080820151816004019080519060200190612a6e929190613d56565b5060a0820151816005015560c0820151816006015560e08201518160070160006101000a81548173ffffffffffffffffffffffffffffffffffffffff021916908373ffffffffffffffffffffffffffffffffffffffff160217905550610100820151816008019080519060200190612ae7929190613d56565b509050507f89ff53d9cf3c81cf48759f7651163bbbe2d7d6562910cecd99a39f1863c3797f33604051612b1a9190615e1e565b60405180910390a15050505050505050565b600a60003373ffffffffffffffffffffffffffffffffffffffff1673ffffffffffffffffffffffffffffffffffffffff16815260200190815260200160002060009054906101000a900460ff16612bb8576040517f08c379a0000000000000000000000000000000000000000000000000000000008152600401612baf9061526f565b60405180910390fd5b6000808060008054905090506000600560003373ffffffffffffffffffffffffffffffffffffffff1673ffffffffffffffffffffffffffffffffffffffff16815260200190815260200160002060010154905060005b82811015612c5a578160008281548110612c2b57612c2a615588565b5b906000526020600020015403612c475760019450809350612c5a565b8080612c52906155e6565b915050612c0e565b506001151584151514612ca2576040517f08c379a0000000000000000000000000000000000000000000000000000000008152600401612c99906156a0565b60405180910390fd5b60006002898989604051602001612cbb93929190615337565b604051602081830303815290604052604051612cd791906153af565b602060405180830381855afa158015612cf4573d6000803e3d6000fd5b5050506040513d601f19601f82011682018060405250810190612d1791906153db565b905060001515600f6000838152602001908152602001600020600088815260200190815260200160002060009054906101000a900460ff16151514612d91576040517f08c379a0000000000000000000000000000000000000000000000000000000008152600401612d889061570c565b60405180910390fd5b6040518060400160405280600881526020017f52656a656374656400000000000000000000000000000000000000000000000081525060036000838152602001908152602001600020600088815260200190815260200160002060008c73ffffffffffffffffffffffffffffffffffffffff1673ffffffffffffffffffffffffffffffffffffffff1681526020019081526020016000206008019080519060200190612e3e929190613d56565b5050505050505050505050565b612e53613f0f565b600a60003373ffffffffffffffffffffffffffffffffffffffff1673ffffffffffffffffffffffffffffffffffffffff16815260200190815260200160002060009054906101000a900460ff16612edf576040517f08c379a0000000000000000000000000000000000000000000000000000000008152600401612ed69061526f565b60405180910390fd5b600560008373ffffffffffffffffffffffffffffffffffffffff1673ffffffffffffffffffffffffffffffffffffffff1681526020019081526020016000206040518060a00160405290816000820160009054906101000a900473ffffffffffffffffffffffffffffffffffffffff1673ffffffffffffffffffffffffffffffffffffffff1673ffffffffffffffffffffffffffffffffffffffff16815260200160018201548152602001600282018054612f99906151f2565b80601f0160208091040260200160405190810160405280929190818152602001828054612fc5906151f2565b80156130125780601f10612fe757610100808354040283529160200191613012565b820191906000526020600020905b815481529060010190602001808311612ff557829003601f168201915b5050505050815260200160038201805461302b906151f2565b80601f0160208091040260200160405190810160405280929190818152602001828054613057906151f2565b80156130a45780601f10613079576101008083540402835291602001916130a4565b820191906000526020600020905b81548152906001019060200180831161308757829003601f168201915b505050505081526020016004820154815250509050919050565b7fe3a19895e62c2f5db724edc1be5cac45a125a101ecd8f07936033d96c23c6fb3816000015182602001518360400151846060015185608001518660a001518760c001518860e0015189610100015160405161312299989796959493929190614a87565b60405180910390a150565b6060600b60003373ffffffffffffffffffffffffffffffffffffffff1673ffffffffffffffffffffffffffffffffffffffff16815260200190815260200160002060009054906101000a900460ff1661318557600080fd5b6000600286868660405160200161319e93929190615337565b6040516020818303038152906040526040516131ba91906153af565b602060405180830381855afa1580156131d7573d6000803e3d6000fd5b5050506040513d601f19601f820116820180604052508101906131fa91906153db565b905060036000828152602001908152602001600020600084815260200190815260200160002060008873ffffffffffffffffffffffffffffffffffffffff1673ffffffffffffffffffffffffffffffffffffffff168152602001908152602001600020600801805461326b906151f2565b80601f0160208091040260200160405190810160405280929190818152602001828054613297906151f2565b80156132e45780601f106132b9576101008083540402835291602001916132e4565b820191906000526020600020905b8154815290600101906020018083116132c757829003601f168201915b505050505091505095945050505050565b600a60003373ffffffffffffffffffffffffffffffffffffffff1673ffffffffffffffffffffffffffffffffffffffff16815260200190815260200160002060009054906101000a900460ff16613381576040517f08c379a00000000000000000000000000000000000000000000000000000000081526004016133789061526f565b60405180910390fd5b600b60008273ffffffffffffffffffffffffffffffffffffffff1673ffffffffffffffffffffffffffffffffffffffff16815260200190815260200160002060009054906101000a900460ff1661340d576040517f08c379a000000000000000000000000000000000000000000000000000000000815260040161340490615850565b60405180910390fd5b6000600d60008373ffffffffffffffffffffffffffffffffffffffff1673ffffffffffffffffffffffffffffffffffffffff16815260200190815260200160002060006101000a81548160ff02191690831515021790555050565b600b60003373ffffffffffffffffffffffffffffffffffffffff1673ffffffffffffffffffffffffffffffffffffffff16815260200190815260200160002060009054906101000a900460ff166134be57600080fd5b600060028585856040516020016134d793929190615337565b6040516020818303038152906040526040516134f391906153af565b602060405180830381855afa158015613510573d6000803e3d6000fd5b5050506040513d601f19601f8201168201806040525081019061353391906153db565b9050600160086000838152602001908152602001600020600088815260200190815260200160002060008473ffffffffffffffffffffffffffffffffffffffff1673ffffffffffffffffffffffffffffffffffffffff16815260200190815260200160002060050160006101000a81548160ff021916908315150217905550505050505050565b600460205283600052604060002060205282600052604060002060205281600052604060002081600581106135ee57600080fd5b602091828204019190069350935050509054906101000a900460ff1681565b600c60003373ffffffffffffffffffffffffffffffffffffffff1673ffffffffffffffffffffffffffffffffffffffff16815260200190815260200160002060009054906101000a900460ff1661366357600080fd5b6000600284848460405160200161367c93929190615337565b60405160208183030381529060405260405161369891906153af565b602060405180830381855afa1580156136b5573d6000803e3d6000fd5b5050506040513d601f19601f820116820180604052508101906136d891906153db565b90506001151560086000838152602001908152602001600020600087815260200190815260200160002060003373ffffffffffffffffffffffffffffffffffffffff1673ffffffffffffffffffffffffffffffffffffffff16815260200190815260200160002060050160009054906101000a900460ff1615151461375c57600080fd5b7f3215462b20c23fb18677c9bfc6da8ba3d4cdd261f901690c8901987ebd6faf2460026000838152602001908152602001600020600087815260200190815260200160002060050154346137b09190615e4c565b6040516137bd9190615e80565b60405180910390a16002600082815260200190815260200160002060008681526020019081526020016000206005015434146137f857600080fd5b60008673ffffffffffffffffffffffffffffffffffffffff163460405161381e90615ebe565b60006040518083038185875af1925050503d806000811461385b576040519150601f19603f3d011682016040523d82523d6000602084013e613860565b606091505b5050905060011515811515036139985761387b828733613bbf565b5061388a873384893442613ce9565b6009600084815260200190815260200160002060008973ffffffffffffffffffffffffffffffffffffffff1673ffffffffffffffffffffffffffffffffffffffff16815260200190815260200160002060008201518160000160006101000a81548173ffffffffffffffffffffffffffffffffffffffff021916908373ffffffffffffffffffffffffffffffffffffffff16021790555060208201518160010160006101000a81548173ffffffffffffffffffffffffffffffffffffffff021916908373ffffffffffffffffffffffffffffffffffffffff16021790555060408201518160020155606082015181600301556080820151816004015560a082015181600501559050506139ce565b7f6c810df8bf5ea1c0e90fb9ea47774a03b79a18b78c66908ee3ce4e05ea7d23386040516139c590615f1f565b60405180910390a15b50505050505050565b6139df613f0f565b6040518060a001604052808773ffffffffffffffffffffffffffffffffffffffff16815260200186815260200185815260200184815260200183815250905095945050505050565b613a2f613ebc565b6040518060e001604052808973ffffffffffffffffffffffffffffffffffffffff168152602001888152602001878152602001868152602001858152602001848152602001838152509050979650505050505050565b613a8d613f54565b6040518060c001604052808873ffffffffffffffffffffffffffffffffffffffff1681526020018773ffffffffffffffffffffffffffffffffffffffff16815260200186815260200185815260200184815260200183151581525090509695505050505050565b613afc613ddc565b6040518060e001604052808973ffffffffffffffffffffffffffffffffffffffff168152602001888152602001878152602001868152602001858152602001848152602001838152509050979650505050505050565b613b5a613fbb565b6040518061012001604052808681526020018b81526020018a81526020018981526020018881526020018781526020018581526020018473ffffffffffffffffffffffffffffffffffffffff1681526020018381525090509998505050505050505050565b606083833373ffffffffffffffffffffffffffffffffffffffff1660026000848152602001908152602001600020600083815260200190815260200160002060070160009054906101000a900473ffffffffffffffffffffffffffffffffffffffff1673ffffffffffffffffffffffffffffffffffffffff1614613c4257600080fd5b8360026000888152602001908152602001600020600087815260200190815260200160002060070160006101000a81548173ffffffffffffffffffffffffffffffffffffffff021916908373ffffffffffffffffffffffffffffffffffffffff1602179055506040518060400160405280600d81526020017f4f776e6572205570646174656400000000000000000000000000000000000000815250925050509392505050565b613cf1614020565b6040518060c001604052808873ffffffffffffffffffffffffffffffffffffffff1681526020018773ffffffffffffffffffffffffffffffffffffffff1681526020018681526020018581526020018481526020018381525090509695505050505050565b828054613d62906151f2565b90600052602060002090601f016020900481019282613d845760008555613dcb565b82601f10613d9d57805160ff1916838001178555613dcb565b82800160010185558215613dcb579182015b82811115613dca578251825591602001919060010190613daf565b5b509050613dd89190614085565b5090565b6040518060e00160405280600073ffffffffffffffffffffffffffffffffffffffff1681526020016060815260200160008152602001606081526020016060815260200160608152602001606081525090565b828054613e3b906151f2565b90600052602060002090601f016020900481019282613e5d5760008555613eab565b82601f10613e6e5780548555613eab565b82800160010185558215613eab57600052602060002091601f016020900482015b82811115613eaa578254825591600101919060010190613e8f565b5b509050613eb89190614085565b5090565b6040518060e00160405280600073ffffffffffffffffffffffffffffffffffffffff1681526020016060815260200160008152602001606081526020016060815260200160608152602001606081525090565b6040518060a00160405280600073ffffffffffffffffffffffffffffffffffffffff168152602001600081526020016060815260200160608152602001600081525090565b6040518060c00160405280600073ffffffffffffffffffffffffffffffffffffffff168152602001600073ffffffffffffffffffffffffffffffffffffffff1681526020016000801916815260200160008152602001600081526020016000151581525090565b60405180610120016040528060008152602001600081526020016060815260200160608152602001606081526020016000815260200160008019168152602001600073ffffffffffffffffffffffffffffffffffffffff168152602001606081525090565b6040518060c00160405280600073ffffffffffffffffffffffffffffffffffffffff168152602001600073ffffffffffffffffffffffffffffffffffffffff168152602001600080191681526020016000815260200160008152602001600081525090565b5b8082111561409e576000816000905550600101614086565b5090565b6000604051905090565b600080fd5b600080fd5b600073ffffffffffffffffffffffffffffffffffffffff82169050919050565b60006140e1826140b6565b9050919050565b6140f1816140d6565b81146140fc57600080fd5b50565b60008135905061410e816140e8565b92915050565b600080fd5b600080fd5b6000601f19601f8301169050919050565b7f4e487b7100000000000000000000000000000000000000000000000000000000600052604160045260246000fd5b6141678261411e565b810181811067ffffffffffffffff821117156141865761418561412f565b5b80604052505050565b60006141996140a2565b90506141a5828261415e565b919050565b600067ffffffffffffffff8211156141c5576141c461412f565b5b6141ce8261411e565b9050602081019050919050565b82818337600083830152505050565b60006141fd6141f8846141aa565b61418f565b90508281526020810184848401111561421957614218614119565b5b6142248482856141db565b509392505050565b600082601f83011261424157614240614114565b5b81356142518482602086016141ea565b91505092915050565b6000819050919050565b61426d8161425a565b811461427857600080fd5b50565b60008135905061428a81614264565b92915050565b600080600080600080600060e0888a0312156142af576142ae6140ac565b5b60006142bd8a828b016140ff565b975050602088013567ffffffffffffffff8111156142de576142dd6140b1565b5b6142ea8a828b0161422c565b96505060406142fb8a828b0161427b565b955050606088013567ffffffffffffffff81111561431c5761431b6140b1565b5b6143288a828b0161422c565b945050608088013567ffffffffffffffff811115614349576143486140b1565b5b6143558a828b0161422c565b93505060a088013567ffffffffffffffff811115614376576143756140b1565b5b6143828a828b0161422c565b92505060c088013567ffffffffffffffff8111156143a3576143a26140b1565b5b6143af8a828b0161422c565b91505092959891949750929550565b6000819050919050565b6143d1816143be565b81146143dc57600080fd5b50565b6000813590506143ee816143c8565b92915050565b600080600080600060a086880312156144105761440f6140ac565b5b600061441e888289016140ff565b955050602061442f8882890161427b565b945050604086013567ffffffffffffffff8111156144505761444f6140b1565b5b61445c8882890161422c565b935050606086013567ffffffffffffffff81111561447d5761447c6140b1565b5b6144898882890161422c565b925050608061449a888289016143df565b9150509295509295909350565b6000602082840312156144bd576144bc6140ac565b5b60006144cb848285016140ff565b91505092915050565b6144dd816140d6565b82525050565b600081519050919050565b600082825260208201905092915050565b60005b8381101561451d578082015181840152602081019050614502565b8381111561452c576000848401525b50505050565b600061453d826144e3565b61454781856144ee565b93506145578185602086016144ff565b6145608161411e565b840191505092915050565b6145748161425a565b82525050565b600060e08301600083015161459260008601826144d4565b50602083015184820360208601526145aa8282614532565b91505060408301516145bf604086018261456b565b50606083015184820360608601526145d78282614532565b915050608083015184820360808601526145f18282614532565b91505060a083015184820360a086015261460b8282614532565b91505060c083015184820360c08601526146258282614532565b9150508091505092915050565b6000602082019050818103600083015261464c818461457a565b905092915050565b600080600080600060a086880312156146705761466f6140ac565b5b600061467e888289016140ff565b955050602086013567ffffffffffffffff81111561469f5761469e6140b1565b5b6146ab8882890161422c565b945050604086013567ffffffffffffffff8111156146cc576146cb6140b1565b5b6146d88882890161422c565b935050606086013567ffffffffffffffff8111156146f9576146f86140b1565b5b6147058882890161422c565b92505060806147168882890161427b565b9150509295509295909350565b600080600080600060a0868803121561473f5761473e6140ac565b5b600061474d8882890161427b565b955050602086013567ffffffffffffffff81111561476e5761476d6140b1565b5b61477a8882890161422c565b945050604086013567ffffffffffffffff81111561479b5761479a6140b1565b5b6147a78882890161422c565b935050606086013567ffffffffffffffff8111156147c8576147c76140b1565b5b6147d48882890161422c565b92505060806147e58882890161427b565b9150509295509295909350565b6000806000806080858703121561480c5761480b6140ac565b5b600061481a8782880161427b565b945050602085013567ffffffffffffffff81111561483b5761483a6140b1565b5b6148478782880161422c565b935050604085013567ffffffffffffffff811115614868576148676140b1565b5b6148748782880161422c565b925050606085013567ffffffffffffffff811115614895576148946140b1565b5b6148a18782880161422c565b91505092959194509250565b600060e0830160008301516148c560008601826144d4565b50602083015184820360208601526148dd8282614532565b91505060408301516148f2604086018261456b565b506060830151848203606086015261490a8282614532565b915050608083015184820360808601526149248282614532565b91505060a083015184820360a086015261493e8282614532565b91505060c083015184820360c08601526149588282614532565b9150508091505092915050565b6000602082019050818103600083015261497f81846148ad565b905092915050565b6000819050919050565b61499a81614987565b81146149a557600080fd5b50565b6000813590506149b781614991565b92915050565b6000806000606084860312156149d6576149d56140ac565b5b60006149e4868287016149a8565b93505060206149f58682870161427b565b9250506040614a06868287016140ff565b9150509250925092565b614a198161425a565b82525050565b600082825260208201905092915050565b6000614a3b826144e3565b614a458185614a1f565b9350614a558185602086016144ff565b614a5e8161411e565b840191505092915050565b614a7281614987565b82525050565b614a81816140d6565b82525050565b600061012082019050614a9d600083018c614a10565b614aaa602083018b614a10565b8181036040830152614abc818a614a30565b90508181036060830152614ad08189614a30565b90508181036080830152614ae48188614a30565b9050614af360a0830187614a10565b614b0060c0830186614a69565b614b0d60e0830185614a78565b818103610100830152614b208184614a30565b90509a9950505050505050505050565b60008060008060008060c08789031215614b4d57614b4c6140ac565b5b6000614b5b89828a0161427b565b9650506020614b6c89828a0161427b565b955050604087013567ffffffffffffffff811115614b8d57614b8c6140b1565b5b614b9989828a0161422c565b945050606087013567ffffffffffffffff811115614bba57614bb96140b1565b5b614bc689828a0161422c565b935050608087013567ffffffffffffffff811115614be757614be66140b1565b5b614bf389828a0161422c565b92505060a0614c0489828a0161427b565b9150509295509295509295565b614c1a816143be565b82525050565b600060a083016000830151614c3860008601826144d4565b506020830151614c4b602086018261456b565b5060408301518482036040860152614c638282614532565b91505060608301518482036060860152614c7d8282614532565b9150506080830151614c926080860182614c11565b508091505092915050565b60006020820190508181036000830152614cb78184614c20565b905092915050565b600080fd5b600080fd5b60006101208284031215614ce057614cdf614cbf565b5b614ceb61012061418f565b90506000614cfb8482850161427b565b6000830152506020614d0f8482850161427b565b602083015250604082013567ffffffffffffffff811115614d3357614d32614cc4565b5b614d3f8482850161422c565b604083015250606082013567ffffffffffffffff811115614d6357614d62614cc4565b5b614d6f8482850161422c565b606083015250608082013567ffffffffffffffff811115614d9357614d92614cc4565b5b614d9f8482850161422c565b60808301525060a0614db38482850161427b565b60a08301525060c0614dc7848285016149a8565b60c08301525060e0614ddb848285016140ff565b60e08301525061010082013567ffffffffffffffff811115614e0057614dff614cc4565b5b614e0c8482850161422c565b6101008301525092915050565b600060208284031215614e2f57614e2e6140ac565b5b600082013567ffffffffffffffff811115614e4d57614e4c6140b1565b5b614e5984828501614cc9565b91505092915050565b60006020820190508181036000830152614e7c8184614a30565b905092915050565b600080600080600060a08688031215614ea057614e9f6140ac565b5b6000614eae8882890161427b565b955050602086013567ffffffffffffffff811115614ecf57614ece6140b1565b5b614edb8882890161422c565b945050604086013567ffffffffffffffff811115614efc57614efb6140b1565b5b614f088882890161422c565b935050606086013567ffffffffffffffff811115614f2957614f286140b1565b5b614f358882890161422c565b9250506080614f46888289016140ff565b9150509295509295909350565b60008060008060808587031215614f6d57614f6c6140ac565b5b6000614f7b878288016149a8565b9450506020614f8c8782880161427b565b9350506040614f9d878288016140ff565b9250506060614fae8782880161427b565b91505092959194509250565b60008115159050919050565b614fcf81614fba565b82525050565b6000602082019050614fea6000830184614fc6565b92915050565b6000614ffb826140b6565b9050919050565b61500b81614ff0565b811461501657600080fd5b50565b60008135905061502881615002565b92915050565b600080600080600060a0868803121561504a576150496140ac565b5b600061505888828901615019565b95505060206150698882890161427b565b945050604086013567ffffffffffffffff81111561508a576150896140b1565b5b6150968882890161422c565b935050606086013567ffffffffffffffff8111156150b7576150b66140b1565b5b6150c38882890161422c565b925050608086013567ffffffffffffffff8111156150e4576150e36140b1565b5b6150f08882890161422c565b9150509295509295909350565b7f526571756573742047656e657261746564205761697420466f72204f6666696360008201527f657220746f20417070726f766520746f20646f2066757274686572207472616e60208201527f73616374696f6e73000000000000000000000000000000000000000000000000604082015250565b600061517f604883614a1f565b915061518a826150fd565b606082019050919050565b60006040820190506151aa6000830184614a78565b81810360208301526151bb81615172565b905092915050565b7f4e487b7100000000000000000000000000000000000000000000000000000000600052602260045260246000fd5b6000600282049050600182168061520a57607f821691505b60208210810361521d5761521c6151c3565b5b50919050565b7f4973204e6f7420496e73706563746f7200000000000000000000000000000000600082015250565b6000615259601083614a1f565b915061526482615223565b602082019050919050565b600060208201905081810360008301526152888161524c565b9050919050565b7f4275796572204e6f742052656769737465726564000000000000000000000000600082015250565b60006152c5601483614a1f565b91506152d08261528f565b602082019050919050565b600060208201905081810360008301526152f4816152b8565b9050919050565b600081905092915050565b6000615311826144e3565b61531b81856152fb565b935061532b8185602086016144ff565b80840191505092915050565b60006153438286615306565b915061534f8285615306565b915061535b8284615306565b9150819050949350505050565b600081519050919050565b600081905092915050565b600061538982615368565b6153938185615373565b93506153a38185602086016144ff565b80840191505092915050565b60006153bb828461537e565b915081905092915050565b6000815190506153d581614991565b92915050565b6000602082840312156153f1576153f06140ac565b5b60006153ff848285016153c6565b91505092915050565b600082825260208201905092915050565b60008190508160005260206000209050919050565b6000815461543b816151f2565b6154458186615408565b945060018216600081146154605760018114615472576154a5565b60ff19831686526020860193506154a5565b61547b85615419565b60005b8381101561549d5781548189015260018201915060208101905061547e565b808801955050505b50505092915050565b7f50656e64696e6700000000000000000000000000000000000000000000000000600082015250565b60006154e4600783615408565b91506154ef826154ae565b602082019050919050565b60006040820190508181036000830152615514818461542e565b90508181036020830152615527816154d7565b905092915050565b61553881614fba565b811461554357600080fd5b50565b6000815190506155558161552f565b92915050565b600060208284031215615571576155706140ac565b5b600061557f84828501615546565b91505092915050565b7f4e487b7100000000000000000000000000000000000000000000000000000000600052603260045260246000fd5b7f4e487b7100000000000000000000000000000000000000000000000000000000600052601160045260246000fd5b60006155f18261425a565b91507fffffffffffffffffffffffffffffffffffffffffffffffffffffffffffffffff8203615623576156226155b7565b5b600182019050919050565b7f596f7520617265206e6f742061737369676e656420746f207468697320636c6960008201527f656e740000000000000000000000000000000000000000000000000000000000602082015250565b600061568a602383614a1f565b91506156958261562e565b604082019050919050565b600060208201905081810360008301526156b98161567d565b9050919050565b7f4361736520436c6f736564000000000000000000000000000000000000000000600082015250565b60006156f6600b83614a1f565b9150615701826156c0565b602082019050919050565b60006020820190508181036000830152615725816156e9565b9050919050565b7f50726f7065727479204e6f7420417070726f7665642054696c6c204e6f770000600082015250565b6000615762601e83614a1f565b915061576d8261572c565b602082019050919050565b6000602082019050818103600083015261579181615755565b9050919050565b7f526571756573742050656e64696e670000000000000000000000000000000000600082015250565b60006157ce600f83614a1f565b91506157d982615798565b602082019050919050565b600060208201905081810360008301526157fd816157c1565b9050919050565b7f53656c6c6572206e6f7420526567697374657265640000000000000000000000600082015250565b600061583a601583614a1f565b915061584582615804565b602082019050919050565b600060208201905081810360008301526158698161582d565b9050919050565b60008160001c9050919050565b6000819050919050565b600061589a61589583615870565b61587d565b9050919050565b600081546158ae816151f2565b6158b881866144ee565b945060018216600081146158d357600181146158e557615918565b60ff1983168652602086019350615918565b6158ee85615419565b60005b83811015615910578154818901526001820191506020810190506158f1565b808801955050505b50505092915050565b6000819050919050565b600061593e61593983615870565b615921565b9050919050565b61594e81614987565b82525050565b600073ffffffffffffffffffffffffffffffffffffffff82169050919050565b600061598761598283615870565b615954565b9050919050565b6000610120830160008084015490506159a681615887565b6159b3600087018261456b565b50600184015490506159c481615887565b6159d1602087018261456b565b506002840185830360408701526159e883826158a1565b925050600384018583036060870152615a0183826158a1565b925050600484018583036080870152615a1a83826158a1565b92505060058401549050615a2d81615887565b615a3a60a087018261456b565b5060068401549050615a4b8161592b565b615a5860c0870182615945565b5060078401549050615a6981615974565b615a7660e08701826144d4565b5060088401858303610100870152615a8e83826158a1565b925050819250505092915050565b60006020820190508181036000830152615ab6818461598e565b905092915050565b7f546869732050726f706572747920697320616c7265616479207265676973746560008201527f7265640000000000000000000000000000000000000000000000000000000000602082015250565b6000615b1a602383614a1f565b9150615b2582615abe565b604082019050919050565b60006020820190508181036000830152615b4981615b0d565b9050919050565b6000615b5b826144e3565b615b658185615408565b9350615b758185602086016144ff565b615b7e8161411e565b840191505092915050565b7f52656a6563746564000000000000000000000000000000000000000000000000600082015250565b6000615bbf600883615408565b9150615bca82615b89565b602082019050919050565b60006040820190508181036000830152615bef8184615b50565b90508181036020830152615c0281615bb2565b905092915050565b50565b6000615c1a600083615408565b9150615c2582615c0a565b600082019050919050565b60006040820190508181036000830152615c4a8184615b50565b90508181036020830152615c5d81615c0d565b905092915050565b7f436173652d436c6f736564000000000000000000000000000000000000000000600082015250565b6000615c9b600b83615408565b9150615ca682615c65565b602082019050919050565b60006040820190508181036000830152615ccb8184615b50565b90508181036020830152615cde81615c8e565b905092915050565b7f416c726561647920526571756573742069732070656e64696e6720666f72207460008201527f686973204c616e64000000000000000000000000000000000000000000000000602082015250565b6000615d42602883614a1f565b9150615d4d82615ce6565b604082019050919050565b60006020820190508181036000830152615d7181615d35565b9050919050565b6000615d838261425a565b9150615d8e8361425a565b9250817fffffffffffffffffffffffffffffffffffffffffffffffffffffffffffffffff0483118215151615615dc757615dc66155b7565b5b828202905092915050565b7f526571756573742047656e6572617465642053756363657366756c6c79000000600082015250565b6000615e08601d83614a1f565b9150615e1382615dd2565b602082019050919050565b6000604082019050615e336000830184614a78565b8181036020830152615e4481615dfb565b905092915050565b6000615e578261425a565b9150615e628361425a565b925082821015615e7557615e746155b7565b5b828203905092915050565b6000602082019050615e956000830184614a10565b92915050565b6000615ea8600083615373565b9150615eb382615c0a565b600082019050919050565b6000615ec982615e9b565b9150819050919050565b7f5472616e73616374696f6e204661696c65640000000000000000000000000000600082015250565b6000615f09601283614a1f565b9150615f1482615ed3565b602082019050919050565b60006020820190508181036000830152615f3881615efc565b905091905056fea2646970667358221220a4062e04184f6543f50ead25a33cfdf77f66a2aec29989eb6d8e6846759229a164736f6c634300080d0033",
  "immutableReferences": {},
  "source": "// SPDX-License-Identifier: MIT\r\npragma solidity >=0.8.13;\r\n\r\n// All Imports\r\nimport \"./Registry.sol\";\r\nimport \"./Buyer.sol\";\r\nimport \"./Payment.sol\";\r\nimport \"./Seller.sol\";\r\nimport \"./LandInspector.sol\";\r\nimport \"./LandRequest.sol\";\r\nimport \"./stringUtils.sol\";\r\n\r\n// Main Contract Starts\r\n\r\ncontract Land is Registry, Buyer, Seller, LandInspector, LandRequest, Payment {\r\n    // Designations Whose consensus are required to complete the Land Registry process\r\n    uint256[] FileInspectors_JobID = [2341, 4567, 7889, 9892, 8990];\r\n    string[] Designations = [\r\n        \"Deputy Commissioner\",\r\n        \"Tehsildar\",\r\n        \"Civil Engineer\",\r\n        \"Registar\",\r\n        \"Accountant\"\r\n    ];\r\n\r\n    // mappings\r\n    mapping(bytes32 => mapping(uint256 => LandDetails)) private _LandRegistered;\r\n    mapping(bytes32 => mapping(uint256 => mapping(address => LandDetails)))\r\n        public _requestLandRegistration;\r\n    mapping(bytes32 => mapping(uint256 => mapping(address => bool[5])))\r\n        public _LandConsensus;\r\n    mapping(address => LandInspectorDetails) private _LandInspectors;\r\n    mapping(address => BuyerDetails) private _Buyer;\r\n    mapping(address => SellerDetails) private _Seller;\r\n    mapping(bytes32 => mapping(uint256 => mapping(address => LandRequestDetails))) _LandRequests;\r\n    mapping(bytes32 => mapping(address => PaymentLog)) private _PaymentsLog;\r\n\r\n    // Check Existence\r\n    mapping(address => bool) private _Inspectors;\r\n    mapping(address => bool) private registeredSeller;\r\n    mapping(address => bool) private registeredBuyer;\r\n    mapping(address => bool) private sellerVerified;\r\n    mapping(address => bool) private buyerVerified;\r\n    mapping(bytes32 => mapping(uint256 => bool)) private LandVerified;\r\n    mapping(uint256 => bool) private _checkTransaction;\r\n\r\n    // state variables\r\n    address CurrentOfficer;\r\n\r\n    // All Events Declarations\r\n    event Registration(address _registrationId, string message);\r\n    event Landrequested(address _sellerId, string message);\r\n    event registryRequest(address _sellerId, string message);\r\n    event requestApproved(address _buyerId);\r\n    event Verified(address _id, string message);\r\n    event Rejected(address _id, string message);\r\n    event caseClosed(bytes32 _id, uint256 Property, string message);\r\n    event messageEmit(string message);\r\n    event messageEmit(uint256 message);\r\n    event property(LandDetails land);\r\n\r\n    // All Modifiers\r\n    modifier isInspector() {\r\n        require(_Inspectors[msg.sender], \"Is Not Inspector\");\r\n        _;\r\n    }\r\n\r\n    modifier isBuyer() {\r\n        require(registeredBuyer[msg.sender]);\r\n        _;\r\n    }\r\n\r\n    modifier isSeller() {\r\n        require(registeredSeller[msg.sender]);\r\n        _;\r\n    }\r\n\r\n    modifier isOwner(bytes32 localHash, uint256 propertyPID) {\r\n        require(\r\n            _LandRegistered[localHash][propertyPID].currentOwner == msg.sender\r\n        );\r\n        _;\r\n    }\r\n\r\n    // Functions and Constructor\r\n    constructor() {\r\n        CurrentOfficer = msg.sender;\r\n        _LandInspectors[CurrentOfficer] = LandInspector.addLandInspector(\r\n            CurrentOfficer,\r\n            2341,\r\n            \"Pearl Kothari\",\r\n            \"Deputy Commissioner\",\r\n            21\r\n        );\r\n        _Inspectors[CurrentOfficer] = true;\r\n    }\r\n\r\n    // Officer Work\r\n    function AddLandOfficers(\r\n        address _id,\r\n        uint256 _jobId,\r\n        string memory _name,\r\n        string memory _designation,\r\n        int256 _age\r\n    ) public {\r\n        require(_Inspectors[msg.sender]);\r\n        _LandInspectors[_id] = LandInspector.addLandInspector(\r\n            _id,\r\n            _jobId,\r\n            _name,\r\n            _designation,\r\n            _age\r\n        );\r\n        _Inspectors[_id] = true;\r\n    }\r\n\r\n    function getOfficers(address _id)\r\n        public\r\n        view\r\n        isInspector\r\n        returns (LandInspectorDetails memory)\r\n    {\r\n        return _LandInspectors[_id];\r\n    }\r\n\r\n    function ApproveBuyer(address _id) public isInspector {\r\n        require(registeredBuyer[_id], \"Buyer Not Registered\");\r\n        buyerVerified[_id] = true;\r\n        // emit Verified(_id,\"Buyer Approved\");\r\n    }\r\n\r\n    function RejectBuyer(address _id) public isInspector {\r\n        require(registeredBuyer[_id], \"Buyer Not Registered\");\r\n        buyerVerified[_id] = false;\r\n        // emit Rejected(_id,\"Buyer Rejected\");\r\n    }\r\n\r\n    function fetchBuyerDetails(address _id)\r\n        public\r\n        view\r\n        returns (BuyerDetails memory)\r\n    {\r\n        return _Buyer[_id];\r\n    }\r\n\r\n    function ApproveSeller(address _id) public isInspector {\r\n        require(registeredSeller[_id], \"Seller not Registered\");\r\n        sellerVerified[_id] = true;\r\n        // emit Verified(_id,\"Seller Approved\");\r\n    }\r\n\r\n    function rejectSeller(address _id) public isInspector {\r\n        require(registeredSeller[_id], \"Seller not Registered\");\r\n        sellerVerified[_id] = false;\r\n        // emit Rejected(_id,\"Seller Rejected\");\r\n    }\r\n\r\n    function fetchSellerDetails(address _id)\r\n        public\r\n        view\r\n        returns (SellerDetails memory)\r\n    {\r\n        return _Seller[_id];\r\n    }\r\n\r\n    function ApproveLand(\r\n        address _id,\r\n        string memory _city,\r\n        string memory _state,\r\n        string memory _district,\r\n        uint256 _propertyPID\r\n    ) public isInspector {\r\n        bytes32 localHash = sha256(abi.encodePacked(_city, _state, _district));\r\n        require(\r\n            StringUtils.equal(\r\n                _requestLandRegistration[localHash][_propertyPID][_id].status,\r\n                \"Pending\"\r\n            )\r\n        );\r\n        bool eligible = false;\r\n        uint256 index;\r\n        uint256 sz = FileInspectors_JobID.length;\r\n        uint256 jobId = _LandInspectors[msg.sender].jobId;\r\n        for (uint256 i = 0; i < sz; i++) {\r\n            if (FileInspectors_JobID[i] == jobId) {\r\n                eligible = true;\r\n                index = i;\r\n                break;\r\n            }\r\n        }\r\n\r\n        require(eligible == true, \"You are not assigned to this client\");\r\n\r\n        require(LandVerified[localHash][_propertyPID] == false, \"Case Closed\");\r\n\r\n        _LandConsensus[localHash][_propertyPID][_id][index] = true;\r\n\r\n        bool approved = false;\r\n        for (uint256 i = 0; i < sz; i++) {\r\n            if (_LandConsensus[localHash][_propertyPID][_id][i] == false) {\r\n                approved = false;\r\n                break;\r\n            }\r\n            approved = true;\r\n        }\r\n\r\n        if (approved == true) {\r\n            _requestLandRegistration[localHash][_propertyPID][_id]\r\n                .status = \"Case-Closed\";\r\n            _LandRegistered[localHash][_propertyPID] = _requestLandRegistration[\r\n                localHash\r\n            ][_propertyPID][_id];\r\n            LandVerified[localHash][_propertyPID] = true;\r\n            // emit caseClosed(localHash,_propertyPID,\"Land Registered Succesfully\");\r\n        }\r\n    }\r\n\r\n    function RejectLandRegistry(\r\n        address _id,\r\n        string memory _city,\r\n        string memory _state,\r\n        string memory _district,\r\n        uint256 _propertyPID\r\n    ) public isInspector {\r\n        bool eligible = false;\r\n        uint256 index;\r\n        uint256 sz = FileInspectors_JobID.length;\r\n        uint256 jobId = _LandInspectors[msg.sender].jobId;\r\n        for (uint256 i = 0; i < sz; i++) {\r\n            if (FileInspectors_JobID[i] == jobId) {\r\n                eligible = true;\r\n                index = i;\r\n                break;\r\n            }\r\n        }\r\n\r\n        require(eligible == true, \"You are not assigned to this client\");\r\n\r\n        bytes32 localHash = sha256(abi.encodePacked(_city, _state, _district));\r\n        require(LandVerified[localHash][_propertyPID] == false, \"Case Closed\");\r\n\r\n        _requestLandRegistration[localHash][_propertyPID][_id]\r\n            .status = \"Rejected\";\r\n    }\r\n\r\n    function fetchLandDetails(\r\n        uint256 _propertyPID,\r\n        string memory _city,\r\n        string memory _state,\r\n        string memory _district\r\n    ) public {\r\n        bytes32 localHash = sha256(abi.encodePacked(_city, _state, _district));\r\n        require(\r\n            LandVerified[localHash][_propertyPID] == true,\r\n            \"Property Not Approved Till Now\"\r\n        );\r\n        emit property(_LandRegistered[localHash][_propertyPID]);\r\n    }\r\n\r\n    // Buyer Work\r\n    function AddBuyer(\r\n        address _id,\r\n        string memory name,\r\n        uint256 age,\r\n        string memory city,\r\n        string memory state,\r\n        string memory aadharNumber,\r\n        string memory panNumber\r\n    ) public {\r\n        require(registeredBuyer[_id] == false);\r\n        _Buyer[_id] = Buyer.AddBuyerDetails(\r\n            _id,\r\n            name,\r\n            age,\r\n            city,\r\n            state,\r\n            aadharNumber,\r\n            panNumber\r\n        );\r\n        registeredBuyer[_id] = true;\r\n        emit Registration(\r\n            _id,\r\n            \"Request Generated Wait For Officer to Approve to do further transactions\"\r\n        );\r\n    }\r\n\r\n    function RequestLand(\r\n        uint256 _propertyPID,\r\n        string memory _city,\r\n        string memory _state,\r\n        string memory _district,\r\n        uint256 _bid\r\n    ) public isBuyer {\r\n        bytes32 localHash = sha256(abi.encodePacked(_city, _state, _district));\r\n        require(\r\n            LandVerified[localHash][_propertyPID] == true,\r\n            \"Property Not Approved Till Now\"\r\n        );\r\n        require(\r\n            _LandRequests[localHash][_propertyPID][msg.sender].sellerId ==\r\n                address(0),\r\n            \"Request Pending\"\r\n        );\r\n\r\n        _LandRequests[localHash][_propertyPID][msg.sender] = LandRequest\r\n            .addLandRequest(\r\n                _LandRegistered[localHash][_propertyPID].currentOwner,\r\n                msg.sender,\r\n                localHash,\r\n                _propertyPID,\r\n                _bid,\r\n                false\r\n            );\r\n    }\r\n\r\n    // Payment\r\n\r\n    function _transferOwnerShip(\r\n        bytes32 localHash,\r\n        uint256 propertyPID,\r\n        address _newOwner\r\n    ) private isOwner(localHash, propertyPID) returns (string memory) {\r\n        _LandRegistered[localHash][propertyPID].currentOwner = _newOwner;\r\n        return \"Owner Updated\";\r\n    }\r\n\r\n    function LandPayment(\r\n        address payable receiverId,\r\n        uint256 _propertyPID,\r\n        string memory _city,\r\n        string memory _state,\r\n        string memory _district\r\n    ) public payable isBuyer {\r\n        bytes32 localHash = sha256(abi.encodePacked(_city, _state, _district));\r\n        require(\r\n            _LandRequests[localHash][_propertyPID][msg.sender].AcceptOffer ==\r\n                true\r\n        );\r\n        emit messageEmit(\r\n            msg.value - _LandRegistered[localHash][_propertyPID].landPrice\r\n        );\r\n        require(\r\n            msg.value == _LandRegistered[localHash][_propertyPID].landPrice\r\n        );\r\n\r\n        (bool success, ) = receiverId.call{value: msg.value}(\"\");\r\n        if (success == true) {\r\n            _transferOwnerShip(localHash, _propertyPID, msg.sender);\r\n            _PaymentsLog[localHash][receiverId] = Payment.registerPayment(\r\n                receiverId,\r\n                msg.sender,\r\n                localHash,\r\n                _propertyPID,\r\n                msg.value,\r\n                block.timestamp\r\n            );\r\n        } else {\r\n            emit messageEmit(\"Transaction Failed\");\r\n        }\r\n    }\r\n\r\n    // Seller Work\r\n    function getLandStatus(\r\n        address _id,\r\n        string memory _city,\r\n        string memory _state,\r\n        string memory _district,\r\n        uint256 _propertyPID\r\n    ) public view isSeller returns (string memory) {\r\n        bytes32 localHash = sha256(abi.encodePacked(_city, _state, _district));\r\n        return _requestLandRegistration[localHash][_propertyPID][_id].status;\r\n    }\r\n\r\n    function AddSeller(\r\n        address _id,\r\n        string memory name,\r\n        uint256 age,\r\n        string memory city,\r\n        string memory state,\r\n        string memory aadharNumber,\r\n        string memory panNumber\r\n    ) public {\r\n        require(registeredSeller[_id] == false);\r\n        _Seller[_id] = Seller.AddSellerDetails(\r\n            _id,\r\n            name,\r\n            age,\r\n            city,\r\n            state,\r\n            aadharNumber,\r\n            panNumber\r\n        );\r\n        registeredSeller[_id] = true;\r\n        emit Registration(\r\n            _id,\r\n            \"Request Generated Wait For Officer to Approve to do further transactions\"\r\n        );\r\n    }\r\n\r\n    function AddLand(\r\n        uint256 _propertyPID,\r\n        uint256 _area,\r\n        string memory _city,\r\n        string memory _state,\r\n        string memory _district,\r\n        uint256 _landPrice\r\n    ) public isSeller {\r\n        // Local Hash is the hash of combination city ,State and district\r\n        // To identify Specific City in Specific State and district\r\n        bytes32 localHash = sha256(abi.encodePacked(_city, _state, _district));\r\n        string memory status = _requestLandRegistration[localHash][\r\n            _propertyPID\r\n        ][msg.sender].status;\r\n        require(\r\n            LandVerified[localHash][_propertyPID] == false,\r\n            \"This Property is already registered\"\r\n        );\r\n        require(\r\n            StringUtils.equal(status, \"Rejected\") ||\r\n                StringUtils.equal(status, \"\") ||\r\n                StringUtils.equal(status, \"Case-Closed\"),\r\n            \"Already Request is pending for this Land\"\r\n        );\r\n\r\n        _requestLandRegistration[localHash][_propertyPID][msg.sender] = Registry\r\n            .RegisterLand(\r\n                _area,\r\n                _city,\r\n                _state,\r\n                _district,\r\n                _landPrice * 1000000000000000000,\r\n                _propertyPID,\r\n                localHash,\r\n                msg.sender,\r\n                \"Pending\"\r\n            );\r\n\r\n        emit registryRequest(msg.sender, \"Request Generated Succesfully\");\r\n    }\r\n\r\n    function ApproveBuyRequest(\r\n        uint256 _propertyPID,\r\n        string memory _city,\r\n        string memory _state,\r\n        string memory _district,\r\n        address buyerId\r\n    ) public isSeller {\r\n        // Local Hash is the hash of combination city ,State and district\r\n        // To identify Specific City in Specific State and district\r\n        bytes32 localHash = sha256(abi.encodePacked(_city, _state, _district));\r\n        _LandRequests[localHash][_propertyPID][buyerId].AcceptOffer = true;\r\n    }\r\n}\r\n",
  "sourcePath": "C:\\Users\\pearl\\MyResumeProjects\\LandRegistry\\contracts\\LandRegistry.sol",
  "compiler": {
    "name": "solc",
    "version": "0.8.13+commit.abaa5c0e.Emscripten.clang"
  },
  "schemaVersion": "3.4.7",
  "updatedAt": "2022-05-20T00:42:25.941Z",
  "devdoc": {
    "kind": "dev",
    "methods": {},
    "version": 1
  },
  "userdoc": {
    "kind": "user",
    "methods": {},
    "version": 1
  }
}