{
  "contractName": "Land",
  "abi": [
    {
      "inputs": [],
      "stateMutability": "nonpayable",
      "type": "constructor"
    },
    {
      "anonymous": false,
      "inputs": [
        {
          "indexed": true,
          "internalType": "uint256",
          "name": "_landId",
          "type": "uint256"
        }
      ],
      "name": "AddingLand",
      "type": "event"
    },
    {
      "anonymous": false,
      "inputs": [
        {
          "indexed": false,
          "internalType": "address",
          "name": "_sellerId",
          "type": "address"
        }
      ],
      "name": "Landrequested",
      "type": "event"
    },
    {
      "anonymous": false,
      "inputs": [
        {
          "indexed": false,
          "internalType": "address",
          "name": "_registrationId",
          "type": "address"
        }
      ],
      "name": "Registration",
      "type": "event"
    },
    {
      "anonymous": false,
      "inputs": [
        {
          "indexed": false,
          "internalType": "address",
          "name": "_id",
          "type": "address"
        }
      ],
      "name": "Rejected",
      "type": "event"
    },
    {
      "anonymous": false,
      "inputs": [
        {
          "indexed": false,
          "internalType": "address",
          "name": "_id",
          "type": "address"
        }
      ],
      "name": "Verified",
      "type": "event"
    },
    {
      "anonymous": false,
      "inputs": [
        {
          "indexed": false,
          "internalType": "address",
          "name": "_buyerId",
          "type": "address"
        }
      ],
      "name": "requestApproved",
      "type": "event"
    },
    {
      "inputs": [
        {
          "internalType": "address",
          "name": "",
          "type": "address"
        }
      ],
      "name": "BuyerMapping",
      "outputs": [
        {
          "internalType": "address",
          "name": "id",
          "type": "address"
        },
        {
          "internalType": "string",
          "name": "name",
          "type": "string"
        },
        {
          "internalType": "uint256",
          "name": "age",
          "type": "uint256"
        },
        {
          "internalType": "string",
          "name": "city",
          "type": "string"
        },
        {
          "internalType": "string",
          "name": "aadharNumber",
          "type": "string"
        },
        {
          "internalType": "string",
          "name": "panNumber",
          "type": "string"
        }
      ],
      "stateMutability": "view",
      "type": "function"
    },
    {
      "inputs": [
        {
          "internalType": "address",
          "name": "",
          "type": "address"
        }
      ],
      "name": "BuyerRejection",
      "outputs": [
        {
          "internalType": "bool",
          "name": "",
          "type": "bool"
        }
      ],
      "stateMutability": "view",
      "type": "function"
    },
    {
      "inputs": [
        {
          "internalType": "address",
          "name": "",
          "type": "address"
        }
      ],
      "name": "BuyerVerification",
      "outputs": [
        {
          "internalType": "bool",
          "name": "",
          "type": "bool"
        }
      ],
      "stateMutability": "view",
      "type": "function"
    },
    {
      "inputs": [
        {
          "internalType": "uint256",
          "name": "",
          "type": "uint256"
        }
      ],
      "name": "InspectorMapping",
      "outputs": [
        {
          "internalType": "uint256",
          "name": "id",
          "type": "uint256"
        },
        {
          "internalType": "string",
          "name": "name",
          "type": "string"
        },
        {
          "internalType": "uint256",
          "name": "age",
          "type": "uint256"
        },
        {
          "internalType": "string",
          "name": "designation",
          "type": "string"
        }
      ],
      "stateMutability": "view",
      "type": "function"
    },
    {
      "inputs": [
        {
          "internalType": "uint256",
          "name": "",
          "type": "uint256"
        }
      ],
      "name": "LandOwner",
      "outputs": [
        {
          "internalType": "address",
          "name": "",
          "type": "address"
        }
      ],
      "stateMutability": "view",
      "type": "function"
    },
    {
      "inputs": [
        {
          "internalType": "uint256",
          "name": "",
          "type": "uint256"
        }
      ],
      "name": "LandVerification",
      "outputs": [
        {
          "internalType": "bool",
          "name": "",
          "type": "bool"
        }
      ],
      "stateMutability": "view",
      "type": "function"
    },
    {
      "inputs": [],
      "name": "Land_Inspector",
      "outputs": [
        {
          "internalType": "address",
          "name": "",
          "type": "address"
        }
      ],
      "stateMutability": "view",
      "type": "function"
    },
    {
      "inputs": [
        {
          "internalType": "uint256",
          "name": "",
          "type": "uint256"
        }
      ],
      "name": "PaymentReceived",
      "outputs": [
        {
          "internalType": "bool",
          "name": "",
          "type": "bool"
        }
      ],
      "stateMutability": "view",
      "type": "function"
    },
    {
      "inputs": [
        {
          "internalType": "address",
          "name": "",
          "type": "address"
        }
      ],
      "name": "RegisteredAddressMapping",
      "outputs": [
        {
          "internalType": "bool",
          "name": "",
          "type": "bool"
        }
      ],
      "stateMutability": "view",
      "type": "function"
    },
    {
      "inputs": [
        {
          "internalType": "address",
          "name": "",
          "type": "address"
        }
      ],
      "name": "RegisteredBuyerMapping",
      "outputs": [
        {
          "internalType": "bool",
          "name": "",
          "type": "bool"
        }
      ],
      "stateMutability": "view",
      "type": "function"
    },
    {
      "inputs": [
        {
          "internalType": "address",
          "name": "",
          "type": "address"
        }
      ],
      "name": "RegisteredSellerMapping",
      "outputs": [
        {
          "internalType": "bool",
          "name": "",
          "type": "bool"
        }
      ],
      "stateMutability": "view",
      "type": "function"
    },
    {
      "inputs": [
        {
          "internalType": "uint256",
          "name": "",
          "type": "uint256"
        }
      ],
      "name": "RequestStatus",
      "outputs": [
        {
          "internalType": "bool",
          "name": "",
          "type": "bool"
        }
      ],
      "stateMutability": "view",
      "type": "function"
    },
    {
      "inputs": [
        {
          "internalType": "uint256",
          "name": "",
          "type": "uint256"
        }
      ],
      "name": "RequestedLands",
      "outputs": [
        {
          "internalType": "bool",
          "name": "",
          "type": "bool"
        }
      ],
      "stateMutability": "view",
      "type": "function"
    },
    {
      "inputs": [
        {
          "internalType": "uint256",
          "name": "",
          "type": "uint256"
        }
      ],
      "name": "RequestsMapping",
      "outputs": [
        {
          "internalType": "uint256",
          "name": "reqId",
          "type": "uint256"
        },
        {
          "internalType": "address",
          "name": "sellerId",
          "type": "address"
        },
        {
          "internalType": "address",
          "name": "buyerId",
          "type": "address"
        },
        {
          "internalType": "uint256",
          "name": "landId",
          "type": "uint256"
        }
      ],
      "stateMutability": "view",
      "type": "function"
    },
    {
      "inputs": [
        {
          "internalType": "address",
          "name": "",
          "type": "address"
        }
      ],
      "name": "SellerMapping",
      "outputs": [
        {
          "internalType": "address",
          "name": "id",
          "type": "address"
        },
        {
          "internalType": "string",
          "name": "name",
          "type": "string"
        },
        {
          "internalType": "uint256",
          "name": "age",
          "type": "uint256"
        },
        {
          "internalType": "string",
          "name": "aadharNumber",
          "type": "string"
        },
        {
          "internalType": "string",
          "name": "panNumber",
          "type": "string"
        }
      ],
      "stateMutability": "view",
      "type": "function"
    },
    {
      "inputs": [
        {
          "internalType": "address",
          "name": "",
          "type": "address"
        }
      ],
      "name": "SellerRejection",
      "outputs": [
        {
          "internalType": "bool",
          "name": "",
          "type": "bool"
        }
      ],
      "stateMutability": "view",
      "type": "function"
    },
    {
      "inputs": [
        {
          "internalType": "address",
          "name": "",
          "type": "address"
        }
      ],
      "name": "SellerVerification",
      "outputs": [
        {
          "internalType": "bool",
          "name": "",
          "type": "bool"
        }
      ],
      "stateMutability": "view",
      "type": "function"
    },
    {
      "inputs": [
        {
          "internalType": "uint256",
          "name": "",
          "type": "uint256"
        }
      ],
      "name": "buyers",
      "outputs": [
        {
          "internalType": "address",
          "name": "",
          "type": "address"
        }
      ],
      "stateMutability": "view",
      "type": "function"
    },
    {
      "inputs": [],
      "name": "buyersCount",
      "outputs": [
        {
          "internalType": "uint256",
          "name": "",
          "type": "uint256"
        }
      ],
      "stateMutability": "view",
      "type": "function"
    },
    {
      "inputs": [],
      "name": "inspectorsCount",
      "outputs": [
        {
          "internalType": "uint256",
          "name": "",
          "type": "uint256"
        }
      ],
      "stateMutability": "view",
      "type": "function"
    },
    {
      "inputs": [
        {
          "internalType": "uint256",
          "name": "",
          "type": "uint256"
        }
      ],
      "name": "lands",
      "outputs": [
        {
          "internalType": "uint256",
          "name": "id",
          "type": "uint256"
        },
        {
          "internalType": "uint256",
          "name": "area",
          "type": "uint256"
        },
        {
          "internalType": "string",
          "name": "city",
          "type": "string"
        },
        {
          "internalType": "string",
          "name": "state",
          "type": "string"
        },
        {
          "internalType": "uint256",
          "name": "landPrice",
          "type": "uint256"
        },
        {
          "internalType": "uint256",
          "name": "propertyPID",
          "type": "uint256"
        }
      ],
      "stateMutability": "view",
      "type": "function"
    },
    {
      "inputs": [],
      "name": "landsCount",
      "outputs": [
        {
          "internalType": "uint256",
          "name": "",
          "type": "uint256"
        }
      ],
      "stateMutability": "view",
      "type": "function"
    },
    {
      "inputs": [],
      "name": "requestsCount",
      "outputs": [
        {
          "internalType": "uint256",
          "name": "",
          "type": "uint256"
        }
      ],
      "stateMutability": "view",
      "type": "function"
    },
    {
      "inputs": [
        {
          "internalType": "uint256",
          "name": "",
          "type": "uint256"
        }
      ],
      "name": "sellers",
      "outputs": [
        {
          "internalType": "address",
          "name": "",
          "type": "address"
        }
      ],
      "stateMutability": "view",
      "type": "function"
    },
    {
      "inputs": [],
      "name": "sellersCount",
      "outputs": [
        {
          "internalType": "uint256",
          "name": "",
          "type": "uint256"
        }
      ],
      "stateMutability": "view",
      "type": "function"
    },
    {
      "inputs": [],
      "name": "getLandsCount",
      "outputs": [
        {
          "internalType": "uint256",
          "name": "",
          "type": "uint256"
        }
      ],
      "stateMutability": "view",
      "type": "function"
    },
    {
      "inputs": [],
      "name": "getBuyersCount",
      "outputs": [
        {
          "internalType": "uint256",
          "name": "",
          "type": "uint256"
        }
      ],
      "stateMutability": "view",
      "type": "function"
    },
    {
      "inputs": [],
      "name": "getSellersCount",
      "outputs": [
        {
          "internalType": "uint256",
          "name": "",
          "type": "uint256"
        }
      ],
      "stateMutability": "view",
      "type": "function"
    },
    {
      "inputs": [],
      "name": "getRequestsCount",
      "outputs": [
        {
          "internalType": "uint256",
          "name": "",
          "type": "uint256"
        }
      ],
      "stateMutability": "view",
      "type": "function"
    },
    {
      "inputs": [
        {
          "internalType": "uint256",
          "name": "id",
          "type": "uint256"
        }
      ],
      "name": "getLandOwner",
      "outputs": [
        {
          "internalType": "address",
          "name": "",
          "type": "address"
        }
      ],
      "stateMutability": "view",
      "type": "function"
    },
    {
      "inputs": [
        {
          "internalType": "address",
          "name": "_sellerId",
          "type": "address"
        }
      ],
      "name": "verifySeller",
      "outputs": [],
      "stateMutability": "nonpayable",
      "type": "function"
    },
    {
      "inputs": [
        {
          "internalType": "address",
          "name": "_sellerId",
          "type": "address"
        }
      ],
      "name": "rejectSeller",
      "outputs": [],
      "stateMutability": "nonpayable",
      "type": "function"
    },
    {
      "inputs": [
        {
          "internalType": "address",
          "name": "_buyerId",
          "type": "address"
        }
      ],
      "name": "verifyBuyer",
      "outputs": [],
      "stateMutability": "nonpayable",
      "type": "function"
    },
    {
      "inputs": [
        {
          "internalType": "address",
          "name": "_buyerId",
          "type": "address"
        }
      ],
      "name": "rejectBuyer",
      "outputs": [],
      "stateMutability": "nonpayable",
      "type": "function"
    },
    {
      "inputs": [
        {
          "internalType": "uint256",
          "name": "_landId",
          "type": "uint256"
        }
      ],
      "name": "verifyLand",
      "outputs": [],
      "stateMutability": "nonpayable",
      "type": "function"
    },
    {
      "inputs": [
        {
          "internalType": "uint256",
          "name": "_id",
          "type": "uint256"
        }
      ],
      "name": "isLandVerified",
      "outputs": [
        {
          "internalType": "bool",
          "name": "",
          "type": "bool"
        }
      ],
      "stateMutability": "view",
      "type": "function"
    },
    {
      "inputs": [
        {
          "internalType": "address",
          "name": "_id",
          "type": "address"
        }
      ],
      "name": "isVerified",
      "outputs": [
        {
          "internalType": "bool",
          "name": "",
          "type": "bool"
        }
      ],
      "stateMutability": "view",
      "type": "function"
    },
    {
      "inputs": [
        {
          "internalType": "address",
          "name": "_id",
          "type": "address"
        }
      ],
      "name": "isRejected",
      "outputs": [
        {
          "internalType": "bool",
          "name": "",
          "type": "bool"
        }
      ],
      "stateMutability": "view",
      "type": "function"
    },
    {
      "inputs": [
        {
          "internalType": "address",
          "name": "_id",
          "type": "address"
        }
      ],
      "name": "isSeller",
      "outputs": [
        {
          "internalType": "bool",
          "name": "",
          "type": "bool"
        }
      ],
      "stateMutability": "view",
      "type": "function"
    },
    {
      "inputs": [
        {
          "internalType": "address",
          "name": "_id",
          "type": "address"
        }
      ],
      "name": "isBuyer",
      "outputs": [
        {
          "internalType": "bool",
          "name": "",
          "type": "bool"
        }
      ],
      "stateMutability": "view",
      "type": "function"
    },
    {
      "inputs": [
        {
          "internalType": "address",
          "name": "_id",
          "type": "address"
        }
      ],
      "name": "isRegistered",
      "outputs": [
        {
          "internalType": "bool",
          "name": "",
          "type": "bool"
        }
      ],
      "stateMutability": "view",
      "type": "function"
    },
    {
      "inputs": [
        {
          "internalType": "uint256",
          "name": "_area",
          "type": "uint256"
        },
        {
          "internalType": "string",
          "name": "_city",
          "type": "string"
        },
        {
          "internalType": "string",
          "name": "_state",
          "type": "string"
        },
        {
          "internalType": "uint256",
          "name": "landPrice",
          "type": "uint256"
        },
        {
          "internalType": "uint256",
          "name": "_propertyPID",
          "type": "uint256"
        }
      ],
      "name": "addLand",
      "outputs": [],
      "stateMutability": "nonpayable",
      "type": "function"
    },
    {
      "inputs": [
        {
          "internalType": "string",
          "name": "_name",
          "type": "string"
        },
        {
          "internalType": "uint256",
          "name": "_age",
          "type": "uint256"
        },
        {
          "internalType": "string",
          "name": "_aadharNumber",
          "type": "string"
        },
        {
          "internalType": "string",
          "name": "_panNumber",
          "type": "string"
        }
      ],
      "name": "registerSeller",
      "outputs": [],
      "stateMutability": "nonpayable",
      "type": "function"
    },
    {
      "inputs": [
        {
          "internalType": "address",
          "name": "i",
          "type": "address"
        }
      ],
      "name": "getSellerDetails",
      "outputs": [
        {
          "internalType": "string",
          "name": "",
          "type": "string"
        },
        {
          "internalType": "uint256",
          "name": "",
          "type": "uint256"
        },
        {
          "internalType": "string",
          "name": "",
          "type": "string"
        },
        {
          "internalType": "string",
          "name": "",
          "type": "string"
        }
      ],
      "stateMutability": "view",
      "type": "function"
    },
    {
      "inputs": [
        {
          "internalType": "string",
          "name": "_name",
          "type": "string"
        },
        {
          "internalType": "uint256",
          "name": "_age",
          "type": "uint256"
        },
        {
          "internalType": "string",
          "name": "_city",
          "type": "string"
        },
        {
          "internalType": "string",
          "name": "_aadharNumber",
          "type": "string"
        },
        {
          "internalType": "string",
          "name": "_panNumber",
          "type": "string"
        }
      ],
      "name": "registerBuyer",
      "outputs": [],
      "stateMutability": "nonpayable",
      "type": "function"
    },
    {
      "inputs": [
        {
          "internalType": "address",
          "name": "i",
          "type": "address"
        }
      ],
      "name": "getBuyerDetails",
      "outputs": [
        {
          "internalType": "string",
          "name": "",
          "type": "string"
        },
        {
          "internalType": "string",
          "name": "",
          "type": "string"
        },
        {
          "internalType": "string",
          "name": "",
          "type": "string"
        },
        {
          "internalType": "uint256",
          "name": "",
          "type": "uint256"
        },
        {
          "internalType": "string",
          "name": "",
          "type": "string"
        }
      ],
      "stateMutability": "view",
      "type": "function"
    },
    {
      "inputs": [
        {
          "internalType": "address",
          "name": "_sellerId",
          "type": "address"
        },
        {
          "internalType": "uint256",
          "name": "_landId",
          "type": "uint256"
        }
      ],
      "name": "requestLand",
      "outputs": [],
      "stateMutability": "nonpayable",
      "type": "function"
    },
    {
      "inputs": [
        {
          "internalType": "uint256",
          "name": "i",
          "type": "uint256"
        }
      ],
      "name": "getRequestDetails",
      "outputs": [
        {
          "internalType": "address",
          "name": "",
          "type": "address"
        },
        {
          "internalType": "address",
          "name": "",
          "type": "address"
        },
        {
          "internalType": "uint256",
          "name": "",
          "type": "uint256"
        },
        {
          "internalType": "bool",
          "name": "",
          "type": "bool"
        }
      ],
      "stateMutability": "view",
      "type": "function"
    },
    {
      "inputs": [
        {
          "internalType": "uint256",
          "name": "_id",
          "type": "uint256"
        }
      ],
      "name": "isRequested",
      "outputs": [
        {
          "internalType": "bool",
          "name": "",
          "type": "bool"
        }
      ],
      "stateMutability": "view",
      "type": "function"
    },
    {
      "inputs": [
        {
          "internalType": "uint256",
          "name": "_id",
          "type": "uint256"
        }
      ],
      "name": "isApproved",
      "outputs": [
        {
          "internalType": "bool",
          "name": "",
          "type": "bool"
        }
      ],
      "stateMutability": "view",
      "type": "function"
    },
    {
      "inputs": [
        {
          "internalType": "uint256",
          "name": "_reqId",
          "type": "uint256"
        }
      ],
      "name": "approveRequest",
      "outputs": [],
      "stateMutability": "nonpayable",
      "type": "function"
    },
    {
      "inputs": [
        {
          "internalType": "uint256",
          "name": "_landId",
          "type": "uint256"
        },
        {
          "internalType": "address",
          "name": "_newOwner",
          "type": "address"
        }
      ],
      "name": "LandOwnershipTransfer",
      "outputs": [],
      "stateMutability": "nonpayable",
      "type": "function"
    },
    {
      "inputs": [
        {
          "internalType": "uint256",
          "name": "_landId",
          "type": "uint256"
        }
      ],
      "name": "isPaid",
      "outputs": [
        {
          "internalType": "bool",
          "name": "",
          "type": "bool"
        }
      ],
      "stateMutability": "view",
      "type": "function"
    },
    {
      "inputs": [
        {
          "internalType": "address payable",
          "name": "_receiver",
          "type": "address"
        },
        {
          "internalType": "uint256",
          "name": "_landId",
          "type": "uint256"
        }
      ],
      "name": "payment",
      "outputs": [],
      "stateMutability": "payable",
      "type": "function"
    }
  ],
  "bytecode": "0x60806040523480156200001157600080fd5b5033601160006101000a81548173ffffffffffffffffffffffffffffffffffffffff021916908373ffffffffffffffffffffffffffffffffffffffff160217905550620000d16040518060400160405280600a81526020017f54656873696c6461617200000000000000000000000000000000000000000000815250602d6040518060400160405280600e81526020017f54656873696c204d616e61676572000000000000000000000000000000000000815250620000d760201b60201c565b6200031d565b60156000815480929190620000ec906200026c565b919050555060405180608001604052806015548152602001848152602001838152602001828152506001600060155481526020019081526020016000206000820151816000015560208201518160010190805190602001906200015192919062000183565b506040820151816002015560608201518160030190805190602001906200017a92919062000183565b50905050505050565b8280546200019190620002e8565b90600052602060002090601f016020900481019282620001b5576000855562000201565b82601f10620001d057805160ff191683800117855562000201565b8280016001018555821562000201579182015b8281111562000200578251825591602001919060010190620001e3565b5b50905062000210919062000214565b5090565b5b808211156200022f57600081600090555060010162000215565b5090565b7f4e487b7100000000000000000000000000000000000000000000000000000000600052601160045260246000fd5b6000819050919050565b6000620002798262000262565b91507fffffffffffffffffffffffffffffffffffffffffffffffffffffffffffffffff8203620002ae57620002ad62000233565b5b600182019050919050565b7f4e487b7100000000000000000000000000000000000000000000000000000000600052602260045260246000fd5b600060028204905060018216806200030157607f821691505b602082108103620003175762000316620002b9565b5b50919050565b613eaa806200032d6000396000f3fe6080604052600436106103355760003560e01c8063a6dc41fb116101ab578063dd9d122d116100f7578063f0d3a9df11610095578063f3f0c2181161006f578063f3f0c21814610dcb578063f58f85b514610df4578063f9c43bdf14610e31578063fbfa4b7f14610e5a57610335565b8063f0d3a9df14610d23578063f2aa821814610d4e578063f34d4c6314610d8b57610335565b8063e1ecc794116100d1578063e1ecc79414610c3e578063e261f1e514610c67578063e4b2611514610ca9578063ee95feaf14610ce657610335565b8063dd9d122d14610b92578063dec091ad14610bbd578063def936c314610bfe57610335565b8063ba49a08c11610164578063cd392a831161013e578063cd392a8314610ac6578063cee26ed514610b03578063d1760e6014610b40578063d7d1bbdb14610b6957610335565b8063ba49a08c14610a35578063bed403c714610a60578063c3c5a54714610a8957610335565b8063a6dc41fb146108d0578063ab5170741461090d578063b0a5dcd31461094f578063b2b875a91461098f578063b3c8fe85146109b8578063b9209e33146109f857610335565b806367a09c231161028557806389d2135411610223578063989376b4116101fd578063989376b4146107ee5780639ae9711e1461082b5780639dc1bfa914610856578063a47d4c021461089357610335565b806389d213541461075d5780638e0fef761461079a578063941e2426146107c357610335565b80636cbf6cf81161025f5780636cbf6cf81461067d5780637910867b146106ba57806383546501146106f75780638965cde11461073457610335565b806367a09c23146105f75780636814800b1461061357806368cfe6ee1461063c57610335565b80631c9afd0f116102f257806348a46bd3116102cc57806348a46bd3146105035780634daa9dae14610540578063601e7c341461057d57806363f17143146105ba57610335565b80631c9afd0f146104705780632a55feec1461049b5780633410452a146104d857610335565b8063059b13431461033a578063155fec721461036357806316d9d666146103a0578063170f3909146103cb5780631869a38b146103f65780631a07f76e14610433575b600080fd5b34801561034657600080fd5b50610361600480360381019061035c9190613528565b610e85565b005b34801561036f57600080fd5b5061038a60048036038101906103859190613613565b61118f565b604051610397919061365b565b60405180910390f35b3480156103ac57600080fd5b506103b56111c4565b6040516103c29190613685565b60405180910390f35b3480156103d757600080fd5b506103e06111ce565b6040516103ed91906136e1565b60405180910390f35b34801561040257600080fd5b5061041d60048036038101906104189190613613565b6111f4565b60405161042a91906136e1565b60405180910390f35b34801561043f57600080fd5b5061045a60048036038101906104559190613613565b611231565b604051610467919061365b565b60405180910390f35b34801561047c57600080fd5b50610485611251565b6040516104929190613685565b60405180910390f35b3480156104a757600080fd5b506104c260048036038101906104bd9190613728565b611257565b6040516104cf919061365b565b60405180910390f35b3480156104e457600080fd5b506104ed6112b8565b6040516104fa9190613685565b60405180910390f35b34801561050f57600080fd5b5061052a60048036038101906105259190613728565b6112c2565b604051610537919061365b565b60405180910390f35b34801561054c57600080fd5b5061056760048036038101906105629190613613565b611377565b604051610574919061365b565b60405180910390f35b34801561058957600080fd5b506105a4600480360381019061059f9190613728565b611397565b6040516105b1919061365b565b60405180910390f35b3480156105c657600080fd5b506105e160048036038101906105dc9190613728565b6113b7565b6040516105ee919061365b565b60405180910390f35b610611600480360381019061060c9190613793565b6113d7565b005b34801561061f57600080fd5b5061063a60048036038101906106359190613728565b611519565b005b34801561064857600080fd5b50610663600480360381019061065e9190613728565b611605565b60405161067495949392919061385b565b60405180910390f35b34801561068957600080fd5b506106a4600480360381019061069f9190613613565b61199c565b6040516106b1919061365b565b60405180910390f35b3480156106c657600080fd5b506106e160048036038101906106dc9190613613565b6119d1565b6040516106ee919061365b565b60405180910390f35b34801561070357600080fd5b5061071e60048036038101906107199190613613565b611a06565b60405161072b919061365b565b60405180910390f35b34801561074057600080fd5b5061075b60048036038101906107569190613728565b611a26565b005b34801561076957600080fd5b50610784600480360381019061077f9190613613565b611b12565b604051610791919061365b565b60405180910390f35b3480156107a657600080fd5b506107c160048036038101906107bc91906138ca565b611b32565b005b3480156107cf57600080fd5b506107d8611cb2565b6040516107e59190613685565b60405180910390f35b3480156107fa57600080fd5b5061081560048036038101906108109190613728565b611cb8565b604051610822919061365b565b60405180910390f35b34801561083757600080fd5b50610840611cd8565b60405161084d9190613685565b60405180910390f35b34801561086257600080fd5b5061087d60048036038101906108789190613613565b611cde565b60405161088a91906136e1565b60405180910390f35b34801561089f57600080fd5b506108ba60048036038101906108b59190613728565b611d11565b6040516108c7919061365b565b60405180910390f35b3480156108dc57600080fd5b506108f760048036038101906108f29190613728565b611d31565b604051610904919061365b565b60405180910390f35b34801561091957600080fd5b50610934600480360381019061092f9190613728565b611d51565b6040516109469695949392919061397d565b60405180910390f35b34801561095b57600080fd5b5061097660048036038101906109719190613613565b611fcd565b60405161098694939291906139fa565b60405180910390f35b34801561099b57600080fd5b506109b660048036038101906109b19190613a3f565b61203d565b005b3480156109c457600080fd5b506109df60048036038101906109da9190613728565b612323565b6040516109ef9493929190613afa565b60405180910390f35b348015610a0457600080fd5b50610a1f6004803603810190610a1a9190613728565b6125e6565b604051610a2c919061365b565b60405180910390f35b348015610a4157600080fd5b50610a4a61269b565b604051610a579190613685565b60405180910390f35b348015610a6c57600080fd5b50610a876004803603810190610a829190613b54565b6126a1565b005b348015610a9557600080fd5b50610ab06004803603810190610aab9190613728565b612763565b604051610abd919061365b565b60405180910390f35b348015610ad257600080fd5b50610aed6004803603810190610ae89190613613565b6127c4565b604051610afa919061365b565b60405180910390f35b348015610b0f57600080fd5b50610b2a6004803603810190610b259190613613565b6127f9565b604051610b3791906136e1565b60405180910390f35b348015610b4c57600080fd5b50610b676004803603810190610b629190613728565b612838565b005b348015610b7557600080fd5b50610b906004803603810190610b8b9190613613565b612924565b005b348015610b9e57600080fd5b50610ba7612976565b604051610bb49190613685565b60405180910390f35b348015610bc957600080fd5b50610be46004803603810190610bdf9190613728565b612980565b604051610bf5959493929190613b94565b60405180910390f35b348015610c0a57600080fd5b50610c256004803603810190610c209190613613565b612b6e565b604051610c359493929190613bfc565b60405180910390f35b348015610c4a57600080fd5b50610c656004803603810190610c609190613728565b612cae565b005b348015610c7357600080fd5b50610c8e6004803603810190610c899190613613565b612d9a565b604051610ca096959493929190613c4f565b60405180910390f35b348015610cb557600080fd5b50610cd06004803603810190610ccb9190613728565b612ee6565b604051610cdd919061365b565b60405180910390f35b348015610cf257600080fd5b50610d0d6004803603810190610d089190613728565b612f06565b604051610d1a919061365b565b60405180910390f35b348015610d2f57600080fd5b50610d38612f67565b604051610d459190613685565b60405180910390f35b348015610d5a57600080fd5b50610d756004803603810190610d709190613613565b612f71565b604051610d8291906136e1565b60405180910390f35b348015610d9757600080fd5b50610db26004803603810190610dad9190613613565b612fb0565b604051610dc29493929190613cbe565b60405180910390f35b348015610dd757600080fd5b50610df26004803603810190610ded9190613d03565b61306b565b005b348015610e0057600080fd5b50610e1b6004803603810190610e169190613728565b613246565b604051610e28919061365b565b60405180910390f35b348015610e3d57600080fd5b50610e586004803603810190610e539190613613565b613266565b005b348015610e6657600080fd5b50610e6f6132ef565b604051610e7c9190613685565b60405180910390f35b600560003373ffffffffffffffffffffffffffffffffffffffff1673ffffffffffffffffffffffffffffffffffffffff16815260200190815260200160002060009054906101000a900460ff1615610edc57600080fd5b6001600560003373ffffffffffffffffffffffffffffffffffffffff1673ffffffffffffffffffffffffffffffffffffffff16815260200190815260200160002060006101000a81548160ff0219169083151502179055506001600760003373ffffffffffffffffffffffffffffffffffffffff1673ffffffffffffffffffffffffffffffffffffffff16815260200190815260200160002060006101000a81548160ff02191690831515021790555060176000815480929190610f9f90613d72565b91905055506040518060c001604052803373ffffffffffffffffffffffffffffffffffffffff16815260200186815260200185815260200184815260200183815260200182815250600360003373ffffffffffffffffffffffffffffffffffffffff1673ffffffffffffffffffffffffffffffffffffffff16815260200190815260200160002060008201518160000160006101000a81548173ffffffffffffffffffffffffffffffffffffffff021916908373ffffffffffffffffffffffffffffffffffffffff16021790555060208201518160010190805190602001906110899291906132f5565b506040820151816002015560608201518160030190805190602001906110b09291906132f5565b5060808201518160040190805190602001906110cd9291906132f5565b5060a08201518160050190805190602001906110ea9291906132f5565b509050506013339080600181540180825580915050600190039060005260206000200160009091909190916101000a81548173ffffffffffffffffffffffffffffffffffffffff021916908373ffffffffffffffffffffffffffffffffffffffff1602179055507f478f5152d8fc568db3f8de9fb402fd9d98a1a7541ecfe434e59cf574fbfc55243360405161118091906136e1565b60405180910390a15050505050565b6000600f600083815260200190815260200160002060009054906101000a900460ff166111bb57600080fd5b60019050919050565b6000601454905090565b601160009054906101000a900473ffffffffffffffffffffffffffffffffffffffff1681565b6000600d600083815260200190815260200160002060009054906101000a900473ffffffffffffffffffffffffffffffffffffffff169050919050565b60106020528060005260406000206000915054906101000a900460ff1681565b60145481565b6000600760008373ffffffffffffffffffffffffffffffffffffffff1673ffffffffffffffffffffffffffffffffffffffff16815260200190815260200160002060009054906101000a900460ff166112af57600080fd5b60019050919050565b6000601854905090565b6000600960008373ffffffffffffffffffffffffffffffffffffffff1673ffffffffffffffffffffffffffffffffffffffff16815260200190815260200160002060009054906101000a900460ff16806113655750600b60008373ffffffffffffffffffffffffffffffffffffffff1673ffffffffffffffffffffffffffffffffffffffff16815260200190815260200160002060009054906101000a900460ff165b61136e57600080fd5b60019050919050565b600f6020528060005260406000206000915054906101000a900460ff1681565b60066020528060005260406000206000915054906101000a900460ff1681565b60096020528060005260406000206000915054906101000a900460ff1681565b600a60003373ffffffffffffffffffffffffffffffffffffffff1673ffffffffffffffffffffffffffffffffffffffff16815260200190815260200160002060009054906101000a900460ff1680156114795750600860003373ffffffffffffffffffffffffffffffffffffffff1673ffffffffffffffffffffffffffffffffffffffff16815260200190815260200160002060009054906101000a900460ff165b801561149957506000808281526020019081526020016000206004015434145b6114a257600080fd5b60016010600083815260200190815260200160002060006101000a81548160ff0219169083151502179055508173ffffffffffffffffffffffffffffffffffffffff166108fc349081150290604051600060405180830381858888f19350505050158015611514573d6000803e3d6000fd5b505050565b3373ffffffffffffffffffffffffffffffffffffffff16601160009054906101000a900473ffffffffffffffffffffffffffffffffffffffff1673ffffffffffffffffffffffffffffffffffffffff161461157357600080fd5b6001600a60008373ffffffffffffffffffffffffffffffffffffffff1673ffffffffffffffffffffffffffffffffffffffff16815260200190815260200160002060006101000a81548160ff0219169083151502179055507f6a6455914f452787eb3985452aceedc1000fb545e394eb3b370e3d08958e0a5b816040516115fa91906136e1565b60405180910390a150565b606080606060006060600360008773ffffffffffffffffffffffffffffffffffffffff1673ffffffffffffffffffffffffffffffffffffffff168152602001908152602001600020600101600360008873ffffffffffffffffffffffffffffffffffffffff1673ffffffffffffffffffffffffffffffffffffffff168152602001908152602001600020600301600360008973ffffffffffffffffffffffffffffffffffffffff1673ffffffffffffffffffffffffffffffffffffffff168152602001908152602001600020600501600360008a73ffffffffffffffffffffffffffffffffffffffff1673ffffffffffffffffffffffffffffffffffffffff16815260200190815260200160002060020154600360008b73ffffffffffffffffffffffffffffffffffffffff1673ffffffffffffffffffffffffffffffffffffffff16815260200190815260200160002060040184805461176590613de9565b80601f016020809104026020016040519081016040528092919081815260200182805461179190613de9565b80156117de5780601f106117b3576101008083540402835291602001916117de565b820191906000526020600020905b8154815290600101906020018083116117c157829003601f168201915b505050505094508380546117f190613de9565b80601f016020809104026020016040519081016040528092919081815260200182805461181d90613de9565b801561186a5780601f1061183f5761010080835404028352916020019161186a565b820191906000526020600020905b81548152906001019060200180831161184d57829003601f168201915b5050505050935082805461187d90613de9565b80601f01602080910402602001604051908101604052809291908181526020018280546118a990613de9565b80156118f65780601f106118cb576101008083540402835291602001916118f6565b820191906000526020600020905b8154815290600101906020018083116118d957829003601f168201915b5050505050925080805461190990613de9565b80601f016020809104026020016040519081016040528092919081815260200182805461193590613de9565b80156119825780601f1061195757610100808354040283529160200191611982565b820191906000526020600020905b81548152906001019060200180831161196557829003601f168201915b505050505090509450945094509450945091939590929450565b6000600c600083815260200190815260200160002060009054906101000a900460ff166119c857600080fd5b60019050919050565b6000600e600083815260200190815260200160002060009054906101000a900460ff166119fd57600080fd5b60019050919050565b600c6020528060005260406000206000915054906101000a900460ff1681565b3373ffffffffffffffffffffffffffffffffffffffff16601160009054906101000a900473ffffffffffffffffffffffffffffffffffffffff1673ffffffffffffffffffffffffffffffffffffffff1614611a8057600080fd5b6001600b60008373ffffffffffffffffffffffffffffffffffffffff1673ffffffffffffffffffffffffffffffffffffffff16815260200190815260200160002060006101000a81548160ff0219169083151502179055507faf77f8960cf590e245ec8b6d41c193a5dcacad8986ae4eb57ac9e5be7b6af03181604051611b0791906136e1565b60405180910390a150565b600e6020528060005260406000206000915054906101000a900460ff1681565b611b3b33612f06565b8015611b4c5750611b4b336125e6565b5b611b5557600080fd5b60146000815480929190611b6890613d72565b91905055506040518060c001604052806014548152602001868152602001858152602001848152602001670de0b6b3a764000084611ba69190613e1a565b815260200182815250600080601454815260200190815260200160002060008201518160000155602082015181600101556040820151816002019080519060200190611bf39291906132f5565b506060820151816003019080519060200190611c109291906132f5565b506080820151816004015560a0820151816005015590505033600d6000601454815260200190815260200160002060006101000a81548173ffffffffffffffffffffffffffffffffffffffff021916908373ffffffffffffffffffffffffffffffffffffffff1602179055506014547f1683494da6843132b363282b9c61279cdc5f214c099a31557fc4d0eaad2f4d2960405160405180910390a25050505050565b60155481565b600b6020528060005260406000206000915054906101000a900460ff1681565b60165481565b600d6020528060005260406000206000915054906101000a900473ffffffffffffffffffffffffffffffffffffffff1681565b60076020528060005260406000206000915054906101000a900460ff1681565b600a6020528060005260406000206000915054906101000a900460ff1681565b60036020528060005260406000206000915090508060000160009054906101000a900473ffffffffffffffffffffffffffffffffffffffff1690806001018054611d9a90613de9565b80601f0160208091040260200160405190810160405280929190818152602001828054611dc690613de9565b8015611e135780601f10611de857610100808354040283529160200191611e13565b820191906000526020600020905b815481529060010190602001808311611df657829003601f168201915b505050505090806002015490806003018054611e2e90613de9565b80601f0160208091040260200160405190810160405280929190818152602001828054611e5a90613de9565b8015611ea75780601f10611e7c57610100808354040283529160200191611ea7565b820191906000526020600020905b815481529060010190602001808311611e8a57829003601f168201915b505050505090806004018054611ebc90613de9565b80601f0160208091040260200160405190810160405280929190818152602001828054611ee890613de9565b8015611f355780601f10611f0a57610100808354040283529160200191611f35565b820191906000526020600020905b815481529060010190602001808311611f1857829003601f168201915b505050505090806005018054611f4a90613de9565b80601f0160208091040260200160405190810160405280929190818152602001828054611f7690613de9565b8015611fc35780601f10611f9857610100808354040283529160200191611fc3565b820191906000526020600020905b815481529060010190602001808311611fa657829003601f168201915b5050505050905086565b60046020528060005260406000206000915090508060000154908060010160009054906101000a900473ffffffffffffffffffffffffffffffffffffffff16908060020160009054906101000a900473ffffffffffffffffffffffffffffffffffffffff16908060030154905084565b600560003373ffffffffffffffffffffffffffffffffffffffff1673ffffffffffffffffffffffffffffffffffffffff16815260200190815260200160002060009054906101000a900460ff161561209457600080fd5b6001600560003373ffffffffffffffffffffffffffffffffffffffff1673ffffffffffffffffffffffffffffffffffffffff16815260200190815260200160002060006101000a81548160ff0219169083151502179055506001600660003373ffffffffffffffffffffffffffffffffffffffff1673ffffffffffffffffffffffffffffffffffffffff16815260200190815260200160002060006101000a81548160ff0219169083151502179055506016600081548092919061215790613d72565b91905055506040518060a001604052803373ffffffffffffffffffffffffffffffffffffffff16815260200185815260200184815260200183815260200182815250600260003373ffffffffffffffffffffffffffffffffffffffff1673ffffffffffffffffffffffffffffffffffffffff16815260200190815260200160002060008201518160000160006101000a81548173ffffffffffffffffffffffffffffffffffffffff021916908373ffffffffffffffffffffffffffffffffffffffff160217905550602082015181600101908051906020019061223b9291906132f5565b506040820151816002015560608201518160030190805190602001906122629291906132f5565b50608082015181600401908051906020019061227f9291906132f5565b509050506012339080600181540180825580915050600190039060005260206000200160009091909190916101000a81548173ffffffffffffffffffffffffffffffffffffffff021916908373ffffffffffffffffffffffffffffffffffffffff1602179055507f478f5152d8fc568db3f8de9fb402fd9d98a1a7541ecfe434e59cf574fbfc55243360405161231591906136e1565b60405180910390a150505050565b60606000606080600260008673ffffffffffffffffffffffffffffffffffffffff1673ffffffffffffffffffffffffffffffffffffffff168152602001908152602001600020600101600260008773ffffffffffffffffffffffffffffffffffffffff1673ffffffffffffffffffffffffffffffffffffffff16815260200190815260200160002060020154600260008873ffffffffffffffffffffffffffffffffffffffff1673ffffffffffffffffffffffffffffffffffffffff168152602001908152602001600020600301600260008973ffffffffffffffffffffffffffffffffffffffff1673ffffffffffffffffffffffffffffffffffffffff16815260200190815260200160002060040183805461243f90613de9565b80601f016020809104026020016040519081016040528092919081815260200182805461246b90613de9565b80156124b85780601f1061248d576101008083540402835291602001916124b8565b820191906000526020600020905b81548152906001019060200180831161249b57829003601f168201915b505050505093508180546124cb90613de9565b80601f01602080910402602001604051908101604052809291908181526020018280546124f790613de9565b80156125445780601f1061251957610100808354040283529160200191612544565b820191906000526020600020905b81548152906001019060200180831161252757829003601f168201915b5050505050915080805461255790613de9565b80601f016020809104026020016040519081016040528092919081815260200182805461258390613de9565b80156125d05780601f106125a5576101008083540402835291602001916125d0565b820191906000526020600020905b8154815290600101906020018083116125b357829003601f168201915b5050505050905093509350935093509193509193565b6000600860008373ffffffffffffffffffffffffffffffffffffffff1673ffffffffffffffffffffffffffffffffffffffff16815260200190815260200160002060009054906101000a900460ff16806126895750600a60008373ffffffffffffffffffffffffffffffffffffffff1673ffffffffffffffffffffffffffffffffffffffff16815260200190815260200160002060009054906101000a900460ff165b61269257600080fd5b60019050919050565b60175481565b3373ffffffffffffffffffffffffffffffffffffffff16601160009054906101000a900473ffffffffffffffffffffffffffffffffffffffff1673ffffffffffffffffffffffffffffffffffffffff16146126fb57600080fd5b612704826127c4565b61270d57600080fd5b80600d600084815260200190815260200160002060006101000a81548173ffffffffffffffffffffffffffffffffffffffff021916908373ffffffffffffffffffffffffffffffffffffffff1602179055505050565b6000600560008373ffffffffffffffffffffffffffffffffffffffff1673ffffffffffffffffffffffffffffffffffffffff16815260200190815260200160002060009054906101000a900460ff166127bb57600080fd5b60019050919050565b60006010600083815260200190815260200160002060009054906101000a900460ff166127f057600080fd5b60019050919050565b6012818154811061280957600080fd5b906000526020600020016000915054906101000a900473ffffffffffffffffffffffffffffffffffffffff1681565b3373ffffffffffffffffffffffffffffffffffffffff16601160009054906101000a900473ffffffffffffffffffffffffffffffffffffffff1673ffffffffffffffffffffffffffffffffffffffff161461289257600080fd5b6001600860008373ffffffffffffffffffffffffffffffffffffffff1673ffffffffffffffffffffffffffffffffffffffff16815260200190815260200160002060006101000a81548160ff0219169083151502179055507f6a6455914f452787eb3985452aceedc1000fb545e394eb3b370e3d08958e0a5b8160405161291991906136e1565b60405180910390a150565b61292d33612f06565b801561293e575061293d336125e6565b5b61294757600080fd5b6001600e600083815260200190815260200160002060006101000a81548160ff02191690831515021790555050565b6000601654905090565b60026020528060005260406000206000915090508060000160009054906101000a900473ffffffffffffffffffffffffffffffffffffffff16908060010180546129c990613de9565b80601f01602080910402602001604051908101604052809291908181526020018280546129f590613de9565b8015612a425780601f10612a1757610100808354040283529160200191612a42565b820191906000526020600020905b815481529060010190602001808311612a2557829003601f168201915b505050505090806002015490806003018054612a5d90613de9565b80601f0160208091040260200160405190810160405280929190818152602001828054612a8990613de9565b8015612ad65780601f10612aab57610100808354040283529160200191612ad6565b820191906000526020600020905b815481529060010190602001808311612ab957829003601f168201915b505050505090806004018054612aeb90613de9565b80601f0160208091040260200160405190810160405280929190818152602001828054612b1790613de9565b8015612b645780601f10612b3957610100808354040283529160200191612b64565b820191906000526020600020905b815481529060010190602001808311612b4757829003601f168201915b5050505050905085565b6001602052806000526040600020600091509050806000015490806001018054612b9790613de9565b80601f0160208091040260200160405190810160405280929190818152602001828054612bc390613de9565b8015612c105780601f10612be557610100808354040283529160200191612c10565b820191906000526020600020905b815481529060010190602001808311612bf357829003601f168201915b505050505090806002015490806003018054612c2b90613de9565b80601f0160208091040260200160405190810160405280929190818152602001828054612c5790613de9565b8015612ca45780601f10612c7957610100808354040283529160200191612ca4565b820191906000526020600020905b815481529060010190602001808311612c8757829003601f168201915b5050505050905084565b3373ffffffffffffffffffffffffffffffffffffffff16601160009054906101000a900473ffffffffffffffffffffffffffffffffffffffff1673ffffffffffffffffffffffffffffffffffffffff1614612d0857600080fd5b6001600960008373ffffffffffffffffffffffffffffffffffffffff1673ffffffffffffffffffffffffffffffffffffffff16815260200190815260200160002060006101000a81548160ff0219169083151502179055507faf77f8960cf590e245ec8b6d41c193a5dcacad8986ae4eb57ac9e5be7b6af03181604051612d8f91906136e1565b60405180910390a150565b6000602052806000526040600020600091509050806000015490806001015490806002018054612dc990613de9565b80601f0160208091040260200160405190810160405280929190818152602001828054612df590613de9565b8015612e425780601f10612e1757610100808354040283529160200191612e42565b820191906000526020600020905b815481529060010190602001808311612e2557829003601f168201915b505050505090806003018054612e5790613de9565b80601f0160208091040260200160405190810160405280929190818152602001828054612e8390613de9565b8015612ed05780601f10612ea557610100808354040283529160200191612ed0565b820191906000526020600020905b815481529060010190602001808311612eb357829003601f168201915b5050505050908060040154908060050154905086565b60086020528060005260406000206000915054906101000a900460ff1681565b6000600660008373ffffffffffffffffffffffffffffffffffffffff1673ffffffffffffffffffffffffffffffffffffffff16815260200190815260200160002060009054906101000a900460ff16612f5e57600080fd5b60019050919050565b6000601754905090565b60138181548110612f8157600080fd5b906000526020600020016000915054906101000a900473ffffffffffffffffffffffffffffffffffffffff1681565b6000806000806004600086815260200190815260200160002060010160009054906101000a900473ffffffffffffffffffffffffffffffffffffffff166004600087815260200190815260200160002060020160009054906101000a900473ffffffffffffffffffffffffffffffffffffffff166004600088815260200190815260200160002060030154600e600089815260200190815260200160002060009054906101000a900460ff1693509350935093509193509193565b61307433611257565b80156130855750613084336125e6565b5b61308e57600080fd5b601860008154809291906130a190613d72565b9190505550604051806080016040528060185481526020018373ffffffffffffffffffffffffffffffffffffffff1681526020013373ffffffffffffffffffffffffffffffffffffffff168152602001828152506004600060185481526020019081526020016000206000820151816000015560208201518160010160006101000a81548173ffffffffffffffffffffffffffffffffffffffff021916908373ffffffffffffffffffffffffffffffffffffffff16021790555060408201518160020160006101000a81548173ffffffffffffffffffffffffffffffffffffffff021916908373ffffffffffffffffffffffffffffffffffffffff160217905550606082015181600301559050506000600e6000601854815260200190815260200160002060006101000a81548160ff0219169083151502179055506001600f6000601854815260200190815260200160002060006101000a81548160ff0219169083151502179055507fc67eb70629da758128cec22f7e36ad0676066ad4df9b66e8ba58a30c1ab4075b8260405161323a91906136e1565b60405180910390a15050565b60056020528060005260406000206000915054906101000a900460ff1681565b3373ffffffffffffffffffffffffffffffffffffffff16601160009054906101000a900473ffffffffffffffffffffffffffffffffffffffff1673ffffffffffffffffffffffffffffffffffffffff16146132c057600080fd5b6001600c600083815260200190815260200160002060006101000a81548160ff02191690831515021790555050565b60185481565b82805461330190613de9565b90600052602060002090601f016020900481019282613323576000855561336a565b82601f1061333c57805160ff191683800117855561336a565b8280016001018555821561336a579182015b8281111561336957825182559160200191906001019061334e565b5b509050613377919061337b565b5090565b5b8082111561339457600081600090555060010161337c565b5090565b6000604051905090565b600080fd5b600080fd5b600080fd5b600080fd5b6000601f19601f8301169050919050565b7f4e487b7100000000000000000000000000000000000000000000000000000000600052604160045260246000fd5b6133ff826133b6565b810181811067ffffffffffffffff8211171561341e5761341d6133c7565b5b80604052505050565b6000613431613398565b905061343d82826133f6565b919050565b600067ffffffffffffffff82111561345d5761345c6133c7565b5b613466826133b6565b9050602081019050919050565b82818337600083830152505050565b600061349561349084613442565b613427565b9050828152602081018484840111156134b1576134b06133b1565b5b6134bc848285613473565b509392505050565b600082601f8301126134d9576134d86133ac565b5b81356134e9848260208601613482565b91505092915050565b6000819050919050565b613505816134f2565b811461351057600080fd5b50565b600081359050613522816134fc565b92915050565b600080600080600060a08688031215613544576135436133a2565b5b600086013567ffffffffffffffff811115613562576135616133a7565b5b61356e888289016134c4565b955050602061357f88828901613513565b945050604086013567ffffffffffffffff8111156135a05761359f6133a7565b5b6135ac888289016134c4565b935050606086013567ffffffffffffffff8111156135cd576135cc6133a7565b5b6135d9888289016134c4565b925050608086013567ffffffffffffffff8111156135fa576135f96133a7565b5b613606888289016134c4565b9150509295509295909350565b600060208284031215613629576136286133a2565b5b600061363784828501613513565b91505092915050565b60008115159050919050565b61365581613640565b82525050565b6000602082019050613670600083018461364c565b92915050565b61367f816134f2565b82525050565b600060208201905061369a6000830184613676565b92915050565b600073ffffffffffffffffffffffffffffffffffffffff82169050919050565b60006136cb826136a0565b9050919050565b6136db816136c0565b82525050565b60006020820190506136f660008301846136d2565b92915050565b613705816136c0565b811461371057600080fd5b50565b600081359050613722816136fc565b92915050565b60006020828403121561373e5761373d6133a2565b5b600061374c84828501613713565b91505092915050565b6000613760826136a0565b9050919050565b61377081613755565b811461377b57600080fd5b50565b60008135905061378d81613767565b92915050565b600080604083850312156137aa576137a96133a2565b5b60006137b88582860161377e565b92505060206137c985828601613513565b9150509250929050565b600081519050919050565b600082825260208201905092915050565b60005b8381101561380d5780820151818401526020810190506137f2565b8381111561381c576000848401525b50505050565b600061382d826137d3565b61383781856137de565b93506138478185602086016137ef565b613850816133b6565b840191505092915050565b600060a08201905081810360008301526138758188613822565b905081810360208301526138898187613822565b9050818103604083015261389d8186613822565b90506138ac6060830185613676565b81810360808301526138be8184613822565b90509695505050505050565b600080600080600060a086880312156138e6576138e56133a2565b5b60006138f488828901613513565b955050602086013567ffffffffffffffff811115613915576139146133a7565b5b613921888289016134c4565b945050604086013567ffffffffffffffff811115613942576139416133a7565b5b61394e888289016134c4565b935050606061395f88828901613513565b925050608061397088828901613513565b9150509295509295909350565b600060c08201905061399260008301896136d2565b81810360208301526139a48188613822565b90506139b36040830187613676565b81810360608301526139c58186613822565b905081810360808301526139d98185613822565b905081810360a08301526139ed8184613822565b9050979650505050505050565b6000608082019050613a0f6000830187613676565b613a1c60208301866136d2565b613a2960408301856136d2565b613a366060830184613676565b95945050505050565b60008060008060808587031215613a5957613a586133a2565b5b600085013567ffffffffffffffff811115613a7757613a766133a7565b5b613a83878288016134c4565b9450506020613a9487828801613513565b935050604085013567ffffffffffffffff811115613ab557613ab46133a7565b5b613ac1878288016134c4565b925050606085013567ffffffffffffffff811115613ae257613ae16133a7565b5b613aee878288016134c4565b91505092959194509250565b60006080820190508181036000830152613b148187613822565b9050613b236020830186613676565b8181036040830152613b358185613822565b90508181036060830152613b498184613822565b905095945050505050565b60008060408385031215613b6b57613b6a6133a2565b5b6000613b7985828601613513565b9250506020613b8a85828601613713565b9150509250929050565b600060a082019050613ba960008301886136d2565b8181036020830152613bbb8187613822565b9050613bca6040830186613676565b8181036060830152613bdc8185613822565b90508181036080830152613bf08184613822565b90509695505050505050565b6000608082019050613c116000830187613676565b8181036020830152613c238186613822565b9050613c326040830185613676565b8181036060830152613c448184613822565b905095945050505050565b600060c082019050613c646000830189613676565b613c716020830188613676565b8181036040830152613c838187613822565b90508181036060830152613c978186613822565b9050613ca66080830185613676565b613cb360a0830184613676565b979650505050505050565b6000608082019050613cd360008301876136d2565b613ce060208301866136d2565b613ced6040830185613676565b613cfa606083018461364c565b95945050505050565b60008060408385031215613d1a57613d196133a2565b5b6000613d2885828601613713565b9250506020613d3985828601613513565b9150509250929050565b7f4e487b7100000000000000000000000000000000000000000000000000000000600052601160045260246000fd5b6000613d7d826134f2565b91507fffffffffffffffffffffffffffffffffffffffffffffffffffffffffffffffff8203613daf57613dae613d43565b5b600182019050919050565b7f4e487b7100000000000000000000000000000000000000000000000000000000600052602260045260246000fd5b60006002820490506001821680613e0157607f821691505b602082108103613e1457613e13613dba565b5b50919050565b6000613e25826134f2565b9150613e30836134f2565b9250817fffffffffffffffffffffffffffffffffffffffffffffffffffffffffffffffff0483118215151615613e6957613e68613d43565b5b82820290509291505056fea264697066735822122090a720ae1b4cb96430ce1db0bdd9c2a09968e7e280aad9a8777be1832406d9c764736f6c634300080d0033",
  "immutableReferences": {},
  "source": "// SPDX-License-Identifier: MIT\r\npragma solidity >=0.8.13;\r\n\r\ncontract Land {\r\n    struct Landreg {\r\n        uint256 id;\r\n        uint256 area;\r\n        string city;\r\n        string state;\r\n        uint256 landPrice;\r\n        uint256 propertyPID;\r\n    }\r\n\r\n    struct Buyer {\r\n        address id;\r\n        string name;\r\n        uint256 age;\r\n        string city;\r\n        string aadharNumber;\r\n        string panNumber;\r\n    }\r\n\r\n    struct Seller {\r\n        address id;\r\n        string name;\r\n        uint256 age;\r\n        string aadharNumber;\r\n        string panNumber;\r\n    }\r\n\r\n    struct LandInspector {\r\n        uint256 id;\r\n        string name;\r\n        uint256 age;\r\n        string designation;\r\n    }\r\n\r\n    struct LandRequest {\r\n        uint256 reqId;\r\n        address sellerId;\r\n        address buyerId;\r\n        uint256 landId;\r\n    }\r\n\r\n    //Mappings\r\n    mapping(uint256 => Landreg) public lands;\r\n    mapping(uint256 => LandInspector) public InspectorMapping;\r\n    mapping(address => Seller) public SellerMapping;\r\n    mapping(address => Buyer) public BuyerMapping;\r\n    mapping(uint256 => LandRequest) public RequestsMapping;\r\n\r\n    mapping(address => bool) public RegisteredAddressMapping;\r\n    mapping(address => bool) public RegisteredSellerMapping;\r\n    mapping(address => bool) public RegisteredBuyerMapping;\r\n    mapping(address => bool) public SellerVerification;\r\n    mapping(address => bool) public SellerRejection;\r\n    mapping(address => bool) public BuyerVerification;\r\n    mapping(address => bool) public BuyerRejection;\r\n    mapping(uint256 => bool) public LandVerification;\r\n    mapping(uint256 => address) public LandOwner;\r\n    mapping(uint256 => bool) public RequestStatus;\r\n    mapping(uint256 => bool) public RequestedLands;\r\n    mapping(uint256 => bool) public PaymentReceived;\r\n\r\n    address public Land_Inspector;\r\n    address[] public sellers;\r\n    address[] public buyers;\r\n\r\n    uint256 public landsCount;\r\n    uint256 public inspectorsCount;\r\n    uint256 public sellersCount;\r\n    uint256 public buyersCount;\r\n    uint256 public requestsCount;\r\n\r\n    event Registration(address _registrationId);\r\n    event AddingLand(uint256 indexed _landId);\r\n    event Landrequested(address _sellerId);\r\n    event requestApproved(address _buyerId);\r\n    event Verified(address _id);\r\n    event Rejected(address _id);\r\n\r\n    constructor() {\r\n        Land_Inspector = msg.sender;\r\n        addLandInspector(\"Tehsildaar\", 45, \"Tehsil Manager\");\r\n    }\r\n\r\n    function addLandInspector(\r\n        string memory _name,\r\n        uint256 _age,\r\n        string memory _designation\r\n    ) private {\r\n        inspectorsCount++;\r\n        InspectorMapping[inspectorsCount] = LandInspector(\r\n            inspectorsCount,\r\n            _name,\r\n            _age,\r\n            _designation\r\n        );\r\n    }\r\n\r\n    modifier isLandInspector() {\r\n        require(Land_Inspector == msg.sender);\r\n        _;\r\n    }\r\n\r\n    function getLandsCount() public view returns (uint256) {\r\n        return landsCount;\r\n    }\r\n\r\n    function getBuyersCount() public view returns (uint256) {\r\n        return buyersCount;\r\n    }\r\n\r\n    function getSellersCount() public view returns (uint256) {\r\n        return sellersCount;\r\n    }\r\n\r\n    function getRequestsCount() public view returns (uint256) {\r\n        return requestsCount;\r\n    }\r\n\r\n    function getLandOwner(uint256 id) public view returns (address) {\r\n        return LandOwner[id];\r\n    }\r\n\r\n    function verifySeller(address _sellerId) public isLandInspector {\r\n        SellerVerification[_sellerId] = true;\r\n        emit Verified(_sellerId);\r\n    }\r\n\r\n    function rejectSeller(address _sellerId) public isLandInspector {\r\n        SellerRejection[_sellerId] = true;\r\n        emit Rejected(_sellerId);\r\n    }\r\n\r\n    function verifyBuyer(address _buyerId) public isLandInspector {\r\n        BuyerVerification[_buyerId] = true;\r\n        emit Verified(_buyerId);\r\n    }\r\n\r\n    function rejectBuyer(address _buyerId) public isLandInspector {\r\n        BuyerRejection[_buyerId] = true;\r\n        emit Rejected(_buyerId);\r\n    }\r\n\r\n    function verifyLand(uint256 _landId) public isLandInspector {\r\n        LandVerification[_landId] = true;\r\n    }\r\n\r\n    function isLandVerified(uint256 _id) public view returns (bool) {\r\n        require(LandVerification[_id]);\r\n        return true;\r\n    }\r\n\r\n    function isVerified(address _id) public view returns (bool) {\r\n        require(SellerVerification[_id] || BuyerVerification[_id]);\r\n        return true;\r\n    }\r\n\r\n    function isRejected(address _id) public view returns (bool) {\r\n        require(SellerRejection[_id] || BuyerRejection[_id]);\r\n        return true;\r\n    }\r\n\r\n    function isSeller(address _id) public view returns (bool) {\r\n        require(RegisteredSellerMapping[_id]);\r\n        return true;\r\n    }\r\n\r\n    function isBuyer(address _id) public view returns (bool) {\r\n        require(RegisteredBuyerMapping[_id]);\r\n        return true;\r\n    }\r\n\r\n    function isRegistered(address _id) public view returns (bool) {\r\n        require(RegisteredAddressMapping[_id]);\r\n        return true;\r\n    }\r\n\r\n    function addLand(\r\n        uint256 _area,\r\n        string memory _city,\r\n        string memory _state,\r\n        uint256 landPrice,\r\n        uint256 _propertyPID\r\n    ) public {\r\n        //Land should be added by verified seller\r\n        require((isSeller(msg.sender)) && (isVerified(msg.sender)));\r\n        landsCount++;\r\n        lands[landsCount] = Landreg(\r\n            landsCount,\r\n            _area,\r\n            _city,\r\n            _state,\r\n            landPrice * 1e18,\r\n            _propertyPID\r\n        );\r\n        LandOwner[landsCount] = msg.sender;\r\n        emit AddingLand(landsCount);\r\n    }\r\n\r\n    //Seller Registeration\r\n    function registerSeller(\r\n        string memory _name,\r\n        uint256 _age,\r\n        string memory _aadharNumber,\r\n        string memory _panNumber\r\n    ) public {\r\n        //checking if seller is already registered or not\r\n        require(!RegisteredAddressMapping[msg.sender]);\r\n\r\n        RegisteredAddressMapping[msg.sender] = true;\r\n        RegisteredSellerMapping[msg.sender] = true;\r\n        sellersCount++;\r\n        SellerMapping[msg.sender] = Seller(\r\n            msg.sender,\r\n            _name,\r\n            _age,\r\n            _aadharNumber,\r\n            _panNumber\r\n        );\r\n        sellers.push(msg.sender);\r\n        emit Registration(msg.sender);\r\n    }\r\n\r\n    function getSellerDetails(address i)\r\n        public\r\n        view\r\n        returns (\r\n            string memory,\r\n            uint256,\r\n            string memory,\r\n            string memory\r\n        )\r\n    {\r\n        return (\r\n            SellerMapping[i].name,\r\n            SellerMapping[i].age,\r\n            SellerMapping[i].aadharNumber,\r\n            SellerMapping[i].panNumber\r\n        );\r\n    }\r\n\r\n    function registerBuyer(\r\n        string memory _name,\r\n        uint256 _age,\r\n        string memory _city,\r\n        string memory _aadharNumber,\r\n        string memory _panNumber\r\n    ) public {\r\n        //require that Buyer is not already registered\r\n        require(!RegisteredAddressMapping[msg.sender]);\r\n\r\n        RegisteredAddressMapping[msg.sender] = true;\r\n        RegisteredBuyerMapping[msg.sender] = true;\r\n        buyersCount++;\r\n        BuyerMapping[msg.sender] = Buyer(\r\n            msg.sender,\r\n            _name,\r\n            _age,\r\n            _city,\r\n            _aadharNumber,\r\n            _panNumber\r\n        );\r\n        buyers.push(msg.sender);\r\n\r\n        emit Registration(msg.sender);\r\n    }\r\n\r\n    function getBuyerDetails(address i)\r\n        public\r\n        view\r\n        returns (\r\n            string memory,\r\n            string memory,\r\n            string memory,\r\n            uint256,\r\n            string memory\r\n        )\r\n    {\r\n        return (\r\n            BuyerMapping[i].name,\r\n            BuyerMapping[i].city,\r\n            BuyerMapping[i].panNumber,\r\n            BuyerMapping[i].age,\r\n            BuyerMapping[i].aadharNumber\r\n        );\r\n    }\r\n\r\n    function requestLand(address _sellerId, uint256 _landId) public {\r\n        require(isBuyer(msg.sender) && isVerified(msg.sender));\r\n\r\n        requestsCount++;\r\n        RequestsMapping[requestsCount] = LandRequest(\r\n            requestsCount,\r\n            _sellerId,\r\n            msg.sender,\r\n            _landId\r\n        );\r\n        RequestStatus[requestsCount] = false;\r\n        RequestedLands[requestsCount] = true;\r\n\r\n        emit Landrequested(_sellerId);\r\n    }\r\n\r\n    function getRequestDetails(uint256 i)\r\n        public\r\n        view\r\n        returns (\r\n            address,\r\n            address,\r\n            uint256,\r\n            bool\r\n        )\r\n    {\r\n        return (\r\n            RequestsMapping[i].sellerId,\r\n            RequestsMapping[i].buyerId,\r\n            RequestsMapping[i].landId,\r\n            RequestStatus[i]\r\n        );\r\n    }\r\n\r\n    function isRequested(uint256 _id) public view returns (bool) {\r\n        require(RequestedLands[_id]);\r\n        return true;\r\n    }\r\n\r\n    function isApproved(uint256 _id) public view returns (bool) {\r\n        require(RequestStatus[_id]);\r\n        return true;\r\n    }\r\n\r\n    function approveRequest(uint256 _reqId) public {\r\n        require((isSeller(msg.sender)) && (isVerified(msg.sender)));\r\n        RequestStatus[_reqId] = true;\r\n    }\r\n\r\n    function LandOwnershipTransfer(uint256 _landId, address _newOwner)\r\n        public\r\n        isLandInspector\r\n    {\r\n        require(isPaid(_landId));\r\n        LandOwner[_landId] = _newOwner;\r\n    }\r\n\r\n    function isPaid(uint256 _landId) public view returns (bool) {\r\n        require(PaymentReceived[_landId]);\r\n        return true;\r\n    }\r\n\r\n    function payment(address payable _receiver, uint256 _landId)\r\n        public\r\n        payable\r\n    {\r\n        require(\r\n            BuyerVerification[msg.sender] &&\r\n                SellerVerification[msg.sender] &&\r\n                msg.value == lands[_landId].landPrice\r\n        );\r\n        PaymentReceived[_landId] = true;\r\n        _receiver.transfer(msg.value);\r\n    }\r\n}\r\n",
  "sourcePath": "C:\\Users\\pearl\\MyResumeProjects\\LandRegistry\\contracts\\landRegistry.sol",
  "compiler": {
    "name": "solc",
    "version": "0.8.13+commit.abaa5c0e.Emscripten.clang"
  },
  "schemaVersion": "3.4.7",
  "updatedAt": "2022-05-18T09:13:00.229Z",
  "devdoc": {
    "kind": "dev",
    "methods": {},
    "version": 1
  },
  "userdoc": {
    "kind": "user",
    "methods": {},
    "version": 1
  }
}