{
  "contractName": "Registry",
  "abi": [
    {
      "anonymous": false,
      "inputs": [
        {
          "indexed": false,
          "internalType": "uint256",
          "name": "propertyPID",
          "type": "uint256"
        },
        {
          "indexed": false,
          "internalType": "uint256",
          "name": "area",
          "type": "uint256"
        },
        {
          "indexed": false,
          "internalType": "string",
          "name": "city",
          "type": "string"
        },
        {
          "indexed": false,
          "internalType": "string",
          "name": "state",
          "type": "string"
        },
        {
          "indexed": false,
          "internalType": "string",
          "name": "district",
          "type": "string"
        },
        {
          "indexed": false,
          "internalType": "uint256",
          "name": "landPrice",
          "type": "uint256"
        },
        {
          "indexed": false,
          "internalType": "bytes32",
          "name": "localHash",
          "type": "bytes32"
        },
        {
          "indexed": false,
          "internalType": "address",
          "name": "currentOwner",
          "type": "address"
        },
        {
          "indexed": false,
          "internalType": "string",
          "name": "status",
          "type": "string"
        }
      ],
      "name": "property",
      "type": "event"
    },
    {
      "inputs": [
        {
          "components": [
            {
              "internalType": "uint256",
              "name": "propertyPID",
              "type": "uint256"
            },
            {
              "internalType": "uint256",
              "name": "area",
              "type": "uint256"
            },
            {
              "internalType": "string",
              "name": "city",
              "type": "string"
            },
            {
              "internalType": "string",
              "name": "state",
              "type": "string"
            },
            {
              "internalType": "string",
              "name": "district",
              "type": "string"
            },
            {
              "internalType": "uint256",
              "name": "landPrice",
              "type": "uint256"
            },
            {
              "internalType": "bytes32",
              "name": "localHash",
              "type": "bytes32"
            },
            {
              "internalType": "address",
              "name": "currentOwner",
              "type": "address"
            },
            {
              "internalType": "string",
              "name": "status",
              "type": "string"
            }
          ],
          "internalType": "struct Registry.LandDetails",
          "name": "Land1",
          "type": "tuple"
        }
      ],
      "name": "fetchLandDetails",
      "outputs": [],
      "stateMutability": "nonpayable",
      "type": "function"
    }
  ],
  "bytecode": "0x608060405234801561001057600080fd5b50610616806100206000396000f3fe608060405234801561001057600080fd5b506004361061002b5760003560e01c8063bb63688014610030575b600080fd5b61004a60048036038101906100459190610439565b61004c565b005b7fe3a19895e62c2f5db724edc1be5cac45a125a101ecd8f07936033d96c23c6fb3816000015182602001518360400151846060015185608001518660a001518760c001518860e001518961010001516040516100b099989796959493929190610537565b60405180910390a150565b6000604051905090565b600080fd5b600080fd5b600080fd5b6000601f19601f8301169050919050565b7f4e487b7100000000000000000000000000000000000000000000000000000000600052604160045260246000fd5b61011d826100d4565b810181811067ffffffffffffffff8211171561013c5761013b6100e5565b5b80604052505050565b600061014f6100bb565b905061015b8282610114565b919050565b600080fd5b6000819050919050565b61017881610165565b811461018357600080fd5b50565b6000813590506101958161016f565b92915050565b600080fd5b600080fd5b600067ffffffffffffffff8211156101c0576101bf6100e5565b5b6101c9826100d4565b9050602081019050919050565b82818337600083830152505050565b60006101f86101f3846101a5565b610145565b905082815260208101848484011115610214576102136101a0565b5b61021f8482856101d6565b509392505050565b600082601f83011261023c5761023b61019b565b5b813561024c8482602086016101e5565b91505092915050565b6000819050919050565b61026881610255565b811461027357600080fd5b50565b6000813590506102858161025f565b92915050565b600073ffffffffffffffffffffffffffffffffffffffff82169050919050565b60006102b68261028b565b9050919050565b6102c6816102ab565b81146102d157600080fd5b50565b6000813590506102e3816102bd565b92915050565b60006101208284031215610300576102ff6100cf565b5b61030b610120610145565b9050600061031b84828501610186565b600083015250602061032f84828501610186565b602083015250604082013567ffffffffffffffff81111561035357610352610160565b5b61035f84828501610227565b604083015250606082013567ffffffffffffffff81111561038357610382610160565b5b61038f84828501610227565b606083015250608082013567ffffffffffffffff8111156103b3576103b2610160565b5b6103bf84828501610227565b60808301525060a06103d384828501610186565b60a08301525060c06103e784828501610276565b60c08301525060e06103fb848285016102d4565b60e08301525061010082013567ffffffffffffffff8111156104205761041f610160565b5b61042c84828501610227565b6101008301525092915050565b60006020828403121561044f5761044e6100c5565b5b600082013567ffffffffffffffff81111561046d5761046c6100ca565b5b610479848285016102e9565b91505092915050565b61048b81610165565b82525050565b600081519050919050565b600082825260208201905092915050565b60005b838110156104cb5780820151818401526020810190506104b0565b838111156104da576000848401525b50505050565b60006104eb82610491565b6104f5818561049c565b93506105058185602086016104ad565b61050e816100d4565b840191505092915050565b61052281610255565b82525050565b610531816102ab565b82525050565b60006101208201905061054d600083018c610482565b61055a602083018b610482565b818103604083015261056c818a6104e0565b9050818103606083015261058081896104e0565b9050818103608083015261059481886104e0565b90506105a360a0830187610482565b6105b060c0830186610519565b6105bd60e0830185610528565b8181036101008301526105d081846104e0565b90509a995050505050505050505056fea2646970667358221220660b44a30ab54fa99e110c5a882616ecf54c245e28642c95bf8d1566f9fc6a2364736f6c634300080d0033",
  "immutableReferences": {},
  "source": "// SPDX-License-Identifier: MIT\r\npragma solidity >=0.8.13;\r\n\r\ncontract Registry {\r\n    struct LandDetails {\r\n        uint256 propertyPID;\r\n        uint256 area;\r\n        string city;\r\n        string state;\r\n        string district;\r\n        uint256 landPrice;\r\n        bytes32 localHash;\r\n        address currentOwner;\r\n        string status;\r\n    }\r\n\r\n    function RegisterLand(\r\n        uint256 _area,\r\n        string memory _city,\r\n        string memory _state,\r\n        string memory _district,\r\n        uint256 _landPrice,\r\n        uint256 _propertyPID,\r\n        bytes32 localHash,\r\n        address _owner,\r\n        string memory status\r\n    ) internal pure returns (LandDetails memory) {\r\n        return\r\n            LandDetails(\r\n                _propertyPID,\r\n                _area,\r\n                _city,\r\n                _state,\r\n                _district,\r\n                _landPrice,\r\n                localHash,\r\n                _owner,\r\n                status\r\n            );\r\n    }\r\n\r\n    event property(\r\n        uint256 propertyPID,\r\n        uint256 area,\r\n        string city,\r\n        string state,\r\n        string district,\r\n        uint256 landPrice,\r\n        bytes32 localHash,\r\n        address currentOwner,\r\n        string status\r\n    );\r\n\r\n    function fetchLandDetails(LandDetails memory Land1) public {\r\n        emit property(\r\n            Land1.propertyPID,\r\n            Land1.area,\r\n            Land1.city,\r\n            Land1.state,\r\n            Land1.district,\r\n            Land1.landPrice,\r\n            Land1.localHash,\r\n            Land1.currentOwner,\r\n            Land1.status\r\n        );\r\n    }\r\n}\r\n",
  "sourcePath": "C:\\Users\\pearl\\MyResumeProjects\\LandRegistry\\contracts\\Registry.sol",
  "compiler": {
    "name": "solc",
    "version": "0.8.13+commit.abaa5c0e.Emscripten.clang"
  },
  "schemaVersion": "3.4.7",
  "updatedAt": "2022-05-20T00:42:25.989Z",
  "devdoc": {
    "kind": "dev",
    "methods": {},
    "version": 1
  },
  "userdoc": {
    "kind": "user",
    "methods": {},
    "version": 1
  }
}