{
  "contractName": "StringUtils",
  "abi": [
    {
      "inputs": [
        {
          "internalType": "string",
          "name": "_a",
          "type": "string"
        },
        {
          "internalType": "string",
          "name": "_b",
          "type": "string"
        }
      ],
      "name": "compare",
      "outputs": [
        {
          "internalType": "int256",
          "name": "",
          "type": "int256"
        }
      ],
      "stateMutability": "pure",
      "type": "function"
    },
    {
      "inputs": [
        {
          "internalType": "string",
          "name": "_a",
          "type": "string"
        },
        {
          "internalType": "string",
          "name": "_b",
          "type": "string"
        }
      ],
      "name": "equal",
      "outputs": [
        {
          "internalType": "bool",
          "name": "",
          "type": "bool"
        }
      ],
      "stateMutability": "pure",
      "type": "function"
    },
    {
      "inputs": [
        {
          "internalType": "string",
          "name": "_haystack",
          "type": "string"
        },
        {
          "internalType": "string",
          "name": "_needle",
          "type": "string"
        }
      ],
      "name": "indexOf",
      "outputs": [
        {
          "internalType": "int256",
          "name": "",
          "type": "int256"
        }
      ],
      "stateMutability": "pure",
      "type": "function"
    }
  ],
  "bytecode": "0x610899610053600b82828239805160001a607314610046577f4e487b7100000000000000000000000000000000000000000000000000000000600052600060045260246000fd5b30600052607381538281f3fe730000000000000000000000000000000000000000301460806040526004361061004b5760003560e01c80633a96fdd71461005057806346bdca9a146100805780638a0807b7146100b0575b600080fd5b61006a6004803603810190610065919061067b565b6100e0565b604051610077919061070c565b60405180910390f35b61009a6004803603810190610095919061067b565b6102bc565b6040516100a79190610742565b60405180910390f35b6100ca60048036038101906100c5919061067b565b6102d2565b6040516100d7919061070c565b60405180910390f35b600080839050600083905060008251905080825110156100ff57815190505b60005b818110156102625782818151811061011d5761011c61075d565b5b602001015160f81c60f81b7effffffffffffffffffffffffffffffffffffffffffffffffffffffffffffff191684828151811061015d5761015c61075d565b5b602001015160f81c60f81b7effffffffffffffffffffffffffffffffffffffffffffffffffffffffffffff191610156101bc577fffffffffffffffffffffffffffffffffffffffffffffffffffffffffffffffff9450505050506102b6565b8281815181106101cf576101ce61075d565b5b602001015160f81c60f81b7effffffffffffffffffffffffffffffffffffffffffffffffffffffffffffff191684828151811061020f5761020e61075d565b5b602001015160f81c60f81b7effffffffffffffffffffffffffffffffffffffffffffffffffffffffffffff1916111561024f5760019450505050506102b6565b808061025a906107c5565b915050610102565b50815183511015610298577fffffffffffffffffffffffffffffffffffffffffffffffffffffffffffffffff93505050506102b6565b8151835111156102ae57600193505050506102b6565b600093505050505b92915050565b6000806102c984846100e0565b14905092915050565b60008083905060008390506001825110806102ee575060018151105b806102fa575081518151115b15610329577fffffffffffffffffffffffffffffffffffffffffffffffffffffffffffffffff9250505061051b565b6fffffffffffffffffffffffffffffffff8251111561036c577fffffffffffffffffffffffffffffffffffffffffffffffffffffffffffffffff9250505061051b565b6000805b83518110156104f3578260008151811061038d5761038c61075d565b5b602001015160f81c60f81b7effffffffffffffffffffffffffffffffffffffffffffffffffffffffffffff19168482815181106103cd576103cc61075d565b5b602001015160f81c60f81b7effffffffffffffffffffffffffffffffffffffffffffffffffffffffffffff1916036104e057600191505b82518210801561041f57508351828261041d919061080d565b105b80156104b357508282815181106104395761043861075d565b5b602001015160f81c60f81b7effffffffffffffffffffffffffffffffffffffffffffffffffffffffffffff1916848383610473919061080d565b815181106104845761048361075d565b5b602001015160f81c60f81b7effffffffffffffffffffffffffffffffffffffffffffffffffffffffffffff1916145b156104cb5781806104c3906107c5565b925050610404565b825182036104df578094505050505061051b565b5b80806104eb906107c5565b915050610370565b507fffffffffffffffffffffffffffffffffffffffffffffffffffffffffffffffff93505050505b92915050565b6000604051905090565b600080fd5b600080fd5b600080fd5b600080fd5b6000601f19601f8301169050919050565b7f4e487b7100000000000000000000000000000000000000000000000000000000600052604160045260246000fd5b6105888261053f565b810181811067ffffffffffffffff821117156105a7576105a6610550565b5b80604052505050565b60006105ba610521565b90506105c6828261057f565b919050565b600067ffffffffffffffff8211156105e6576105e5610550565b5b6105ef8261053f565b9050602081019050919050565b82818337600083830152505050565b600061061e610619846105cb565b6105b0565b90508281526020810184848401111561063a5761063961053a565b5b6106458482856105fc565b509392505050565b600082601f83011261066257610661610535565b5b813561067284826020860161060b565b91505092915050565b600080604083850312156106925761069161052b565b5b600083013567ffffffffffffffff8111156106b0576106af610530565b5b6106bc8582860161064d565b925050602083013567ffffffffffffffff8111156106dd576106dc610530565b5b6106e98582860161064d565b9150509250929050565b6000819050919050565b610706816106f3565b82525050565b600060208201905061072160008301846106fd565b92915050565b60008115159050919050565b61073c81610727565b82525050565b60006020820190506107576000830184610733565b92915050565b7f4e487b7100000000000000000000000000000000000000000000000000000000600052603260045260246000fd5b7f4e487b7100000000000000000000000000000000000000000000000000000000600052601160045260246000fd5b6000819050919050565b60006107d0826107bb565b91507fffffffffffffffffffffffffffffffffffffffffffffffffffffffffffffffff82036108025761080161078c565b5b600182019050919050565b6000610818826107bb565b9150610823836107bb565b9250827fffffffffffffffffffffffffffffffffffffffffffffffffffffffffffffffff038211156108585761085761078c565b5b82820190509291505056fea264697066735822122002f60d234b6e5e7442bd9bee4938687cfd6594364af4b4c7a37a37ba2bd37f4264736f6c634300080d0033",
  "immutableReferences": {},
  "source": "// SPDX-License-Identifier: MIT\r\npragma solidity >=0.8.13;\r\n\r\nlibrary StringUtils {\r\n    /// @dev Does a byte-by-byte lexicographical comparison of two strings.\r\n    /// @return a negative number if `_a` is smaller, zero if they are equal\r\n    /// and a positive numbe if `_b` is smaller.\r\n    function compare(string memory _a, string memory _b)\r\n        public\r\n        pure\r\n        returns (int256)\r\n    {\r\n        bytes memory a = bytes(_a);\r\n        bytes memory b = bytes(_b);\r\n        uint256 minLength = a.length;\r\n        if (b.length < minLength) minLength = b.length;\r\n        //@todo unroll the loop into increments of 32 and do full 32 byte comparisons\r\n        for (uint256 i = 0; i < minLength; i++)\r\n            if (a[i] < b[i]) return -1;\r\n            else if (a[i] > b[i]) return 1;\r\n        if (a.length < b.length) return -1;\r\n        else if (a.length > b.length) return 1;\r\n        else return 0;\r\n    }\r\n\r\n    /// @dev Compares two strings and returns true iff they are equal.\r\n    function equal(string memory _a, string memory _b)\r\n        public\r\n        pure\r\n        returns (bool)\r\n    {\r\n        return compare(_a, _b) == 0;\r\n    }\r\n\r\n    /// @dev Finds the index of the first occurrence of _needle in _haystack\r\n    function indexOf(string memory _haystack, string memory _needle)\r\n        public\r\n        pure\r\n        returns (int256)\r\n    {\r\n        bytes memory h = bytes(_haystack);\r\n        bytes memory n = bytes(_needle);\r\n        if (h.length < 1 || n.length < 1 || (n.length > h.length)) return -1;\r\n        else if (h.length > (2**128 - 1))\r\n            // since we have to be able to return -1 (if the char isn't found or input error), this function must return an \"int\" type with a max length of (2^128 - 1)\r\n            return -1;\r\n        else {\r\n            uint256 subindex = 0;\r\n            for (uint256 i = 0; i < h.length; i++) {\r\n                if (h[i] == n[0]) // found the first char of b\r\n                {\r\n                    subindex = 1;\r\n                    while (\r\n                        subindex < n.length &&\r\n                        (i + subindex) < h.length &&\r\n                        h[i + subindex] == n[subindex] // search until the chars don't match or until we reach the end of a or b\r\n                    ) {\r\n                        subindex++;\r\n                    }\r\n                    if (subindex == n.length) return int256(i);\r\n                }\r\n            }\r\n            return -1;\r\n        }\r\n    }\r\n}\r\n",
  "sourcePath": "C:\\Users\\pearl\\MyResumeProjects\\LandRegistry\\contracts\\stringUtils.sol",
  "compiler": {
    "name": "solc",
    "version": "0.8.13+commit.abaa5c0e.Emscripten.clang"
  },
  "schemaVersion": "3.4.7",
  "updatedAt": "2022-05-20T00:42:25.998Z",
  "devdoc": {
    "kind": "dev",
    "methods": {
      "compare(string,string)": {
        "details": "Does a byte-by-byte lexicographical comparison of two strings.",
        "returns": {
          "_0": "a negative number if `_a` is smaller, zero if they are equal and a positive numbe if `_b` is smaller."
        }
      },
      "equal(string,string)": {
        "details": "Compares two strings and returns true iff they are equal."
      },
      "indexOf(string,string)": {
        "details": "Finds the index of the first occurrence of _needle in _haystack"
      }
    },
    "version": 1
  },
  "userdoc": {
    "kind": "user",
    "methods": {},
    "version": 1
  }
}